:400000000080002011000000090400000904000010B500F001FAC04670B51222274B1A6000F060FF264801F08BF8012000F07AFF302000F071FE234A234B1A60234C802527
:40004000ED052560224A116802230B431360214A214B1A600022214B1A60214A136808218B431360FA20C00000F008FF1D4800F049FE1D4A1D4B1A601D4B1E4A1A601E492E
:400080001E4A11601E4A1A60802212061D4B1A608022D2021C4B1A6041221C4B1A6040231B4A13601B4A13601B49082000F000FE082000F0F1FD256070BDC0463000104083
:4000C000001BB7000600008004010B400C020B4078002E402D3E00007C002E4064F02E406CF02E40DC05000000E3AF00040301400000014041FF0080005F090000030140D0
:4001000040FF008008010B4000010B402C010140200101401C0101403D10000010B572B60022254B1A6000240FE024486200131959000B00411889881A5AC31858880004DE
:40014000104300F05BF90134E4B2012CEDD91B490C311B482C3000F027F91A4A1A4B1A6008221A4B1A6099231B04194A136080214902184A1160184A136018490B783C22E7
:40018000934314221343DBB20B70154A117816230B43DBB213700522124B1A60124A134B1A600122124B1A600532124B1A60FFF733FF00F013F910BD6CF02E40C050010050
:4001C00040510100030800EE000002400001024000500F4008500F4010500F4001700F4000700F4000000440B66DDB0008000440000104400801044010B5064C2378002B7E
:4002000007D1054B002B02D0044800E000BF0123237010BD1013002000000000BC500100084B10B5002B03D00749084800E000BF07480368002B00D110BD064B002BFBD0BB
:400240009847F9E70000000014130020BC500100400E002000000000F0B585B00F4B1B78022B18D101AC103323810D4D01950127A7800C4E002332000021200010F032FB30
:400280001523238101350195A780002332000021200010F027FB05B0F0BDC046BE2400202C130020C424002070B50C00CB17CD185D404B1B5A1E9341DBB2642D23DC00285A
:4002C00002D001280FD01CE0180000F009FF601B43425841C0B200F00FFF280000F0F6F8094B1C700DE0180000F012FF601B43425841C0B200F018FF280000F057F9024B5C
:400300005C70FFF7A9FF70BD2C13002010B50C00272808D002D8012805D028E0412808D04C280BD023E0002000F01AFA00F09CFC1DE0FFF791FF00F035FC18E08B89122BC3
:4003400005D14B68002159560020FFF7ADFFA389152B05D16368002159560120FFF7A4FF034A13785078000218430FF093F810BDC424002010B562B600F0F8F800F066F963
:4003800000210020FFF790FF00210120FFF78CFF044800F089F901F00BFA032001F000FAF9E7C0460D030000F0B50025002711E0BB00C658F3B2FF22964308E06A008A18AE
:4003C0001478A419527822700135013BDBB2002BF4D10137052FEBD9F0BDC0460323044A1360044A13600022034B1A607047C0463000304030003140000E3F4010B50A009A
:40040000002101F08FF910BD10B501F047F903680C2B00D1FEE7FEE770B50F4E0F4D13E029686B68AC68002202E001C901C30432A242FAD1E868002202E0002102C30432F2
:400440008242FAD11035013E002EE9D101F02CF9FFF790FFFEE7C04601000000EC53010010B50E4A136801218B43136000230AE0032B03D89A000A49505800E0094899004A
:40048000094A885001332F2BF2D9FFF747FE034A116801230B43136010BDC046000010400000000009040000000000200004000C014B18607047C046080120400004000C78
:4004C000014B18607047C046140120400004000C014B18607047C0460C01204070B504000D0000F036FEAC40024B1C6000F035FE70BDC0460800204010B500F02AFE064A0E
:40050000116801230B43136000F027FE18210120FFF7E4FF10BDC04600002040014B18607047C0463801204010B50D4C8023DB042360236823600020FFF7B8FF23682360BC
:400540000C22084B1A600120FFF7E8FF3122064B1A606420FFF7B2FF3220FFF7B7FF10BD00012040240120402801204010B5064B1B78002B04D1FFF7D7FF0122024B1A7090
:40058000FFF7BAFF10BDC0462E1300200004000C014B18607047C046480120400004000C014B18607047C046540120400004000C014B18607047C0464C01204070B5040071
:4005C0000D0000F0C6FDAC40024B1C6000F0C5FD70BDC0460800204010B500F0BAFD064A116802230B43136000F0B7FD18210220FFF7E4FF10BDC04600002040014B18604F
:400600007047C0467801204010B50D4C8023DB042360236823600020FFF7B8FF236823600C22084B1A600120FFF7E8FF3122064B1A606420FFF7B2FF3220FFF7B7FF10BD0B
:4006400040012040640120406801204010B5064B1B78002B04D1FFF7D7FF0122024B1A70FFF7BAFF10BDC0462F13002010B500F08DFA10BD10B50024064B1C70064B1C704C
:40068000064B1C70FFF7F2FF054B1C70054B1C7010BDC046C7240020C0240020C6240020B0240020B824002010B590B00400142222490BA801F02DF82023214AD35C002B67
:4006C00005D1FFF7D7FF012120231D4AD154002C30D01C4B1C6008AC05AA099206AB089302212181193119805980173919710823137001F04FF816216944200001F034F9AB
:40070000002818D1104B0293104B0193052300930BABD82212010E490E4801F07BF8002809D101220C4B1A70093216210B4810F0C1F800E0012010B010BDC046845101004C
:4007400030130020B42400207902000000610100C0000020BD080000BE2400209851010010B502282FD81C4B1B78042B2DD11B4B1B785B072CD4002809D1194B00221A8610
:400780002032596A0A805B6A10325A800CE001280AD1134B96221A86C822D200596A0A805B6A8022D2015A800E4B18700C4820300DF08EFC00280DD1084A117804230B4394
:4007C000DBB2137006E0012004E00420FF3001E00420FF3010BDC046BE240020C7240020440E0020C62400207047C04603784078000218437047C04670B5050083890F2BA1
:400800001FD1043031332A00002110F06BF8041E11D16868FFF7EAFF830706D50A4B1B68290082204000984705E0074B1B6829000620FF309847054A137801218B43137044
:4008400000E00024200070BDB4240020C7240020024B00225A701A707047C046C424002010B582B00400FFF7C7FF0A4B1B78DB070ED4002809D001A912238B70A3890B80A7
:40088000C87020680EF08EFD02E020680EF002FE02B010BDC72400208379002B07D000200BE0C25C002A07D10133DBB200E00023052BF6D9002000E001207047F0B583B061
:4008C00004000D009E4A117801230B43DBB21370272800D1CAE013D8062800D18AE005D8012825D0052800D180E018E1242800D1B4E0262800D1C1E0212800D00FE18DE09D
:40090000422800D1F7E009D8312800D1AAE0412800D1DBE0282800D001E1ABE04C2800D1F4E0FA2800D1F5E0432800D0F7E0E5E001AE0727377000237370300002F0CCFF5F
:40094000377001237370300002F0C6FF00F01EFF7C4B1E683000FFF79FFF00280CD0300000F02AFF774E00213068FFF73DFF30680121FFF739FF2AE0734B1F78734B187832
:400980008001FC263601020032403F21394011436F4B1B781B03F8225202134019436D4B1B785B04FE22120413400B436A4E33701A0A72701B0CB370300000F0FDFE0021CC
:4009C0003000FFF711FF01213000FFF70DFF00200DF010FA0222614901A800F09AFE01A80DF026FA04225E4B1A7098E02A785D4B1A7094E02B78002B00D090E06B78002B4C
:400A000006D1594B0022DA809A80584A1A606B604B4A137801218B43137080E0484B1B789B067CD4524B1B78102B02D10522504BDA70504B18784E490DF008FB01AB188064
:400A4000002804D04C4B1B6801A9362098473C4A117801230B43DBB2137060E06A78474B1A705CE002223E4B1A7058E002223C4B1A7054E004223A4B1A7050E0384B1B7823
:400A8000022B4CD02E4A1278D20748D52C4A1278520708D50322324B1A70294A137804218B4313703BE0264A1278120708D504222B4B1A70224A137808218B4313702EE06F
:400AC000032B2CD10422264B1A7028E0294E02222900300000F01DFE0022224B1A7031783D31FF314900264B591801310232254800F00FFE13E0FFF7ABFE10E06988162996
:400B000000D9172128880EF057FC08E02800FFF7A7FE04E01C4A117801230B431370084B1A7811231A4209D0054A137801218B431370114B1B6829002000984703B0F0BD2E
:400B4000C7240020780E00207CF2FF0F7DF2FF0F7BF2FF0F78F2FF0F7C0E002088530100BE240020C024002054130020400E0020300F0020C4240020B4240020B8240020FC
:400B800000610100BC240020B02400207047C046034A117880235B420B43DBB21370704772000F40024A11787F230B401370704772000F40014B18707047C04602000F4097
:400BC000014B18707047C04642000F40014B18707047C04622000F40014B18707047C04682000F40014B1878C0B2704762000F40014B1878C0B2704752000F4010B501E06D
:400C0000FFF7F6FFFFF7EEFFC306F9D410BDC04610B513490B783F22934309221343DBB20B70104C227801231343DBB22370FF20FFF7C0FFFF20FFF7C3FF7F20FFF7C6FF84
:400C40000020FFF7C9FF00F084FA227810231343DBB2237000F081FAFFF7D0FF10BDC04672000F4092000F4010B5064B1B78002B04D1FFF7CDFF0122024B1A70FFF788FF5E
:400C800010BDC0465C130020024B1B68012018407047C0460C002E401F2318401E3B8340014A13607047C04600E100E001BE704770B504000D001F2802D90020FFF7F6FF87
:400CC0001034A40080239B059C4664442068256070BDC04610B5040006E0084B586800F02FFA074B9C46644480231B029C42F4D8024B9868604300F023FA10BD380F0020AD
:400D00000080FFFF10B5034B1B7B584300F018FA10BDC046380F0020F0B557464E46C0B483B0040000F015FA0190E71E2D2F74D83F4B1B78DBB29C4208D83E4B1B78DBB2E6
:400D40009A463D4B1B78DBB2994631E03B4B1B78DBB29C4208D83A4B1B78DBB29A46394B1B78DBB2994623E0374B1B78DBB29C4208D8364B1B78DBB29A46354B1B78DBB20B
:400D8000994615E0334B1B78DBB29C4208D8324B1B78DBB29A46314B1B78DBB2994607E02F4B1B78DBB29A462E4B1B78DBB299462D4BDE5D2F2E09D92A2C07D919222B4B59
:400DC0001A60052000F0BCF9192503E0274B1D683F231D40B54206D9234BDA5D234B1A60052000F0ADF91F4B9C4664442378DBB21F4A13601F4B52461A601F4B4A461A60D2
:400E00000520FFF77FFFB5420AD2174BDA5D174B1A60052000F094F902E00020FFF746FF019800F09AF903B00CBC91469A46F0BD40F3FF0F41F3FF0F42F3FF0F43F3FF0FED
:400E400044F3FF0F45F3FF0F46F3FF0F47F3FF0F48F3FF0F49F3FF0F4AF3FF0F4BF3FF0F4CF3FF0F4DF3FF0F985301002CFF0B4028FF0B401CFF0B4020FF0B4010B5040026
:400E80000F4A116801230B4313600E4A0E4B1A600E4A1368802109020B431360002809D100200CE00120FFF72DFFFFF7EDFE002804D1013C002CF5D1102000E0002010BDB5
:400EC00060F02E400220000078002E4010002E40034B1868C0231B02184000D00120704700010B4010B50D4B1A6801218A431A601A68022082431A60094A10683024A043A7
:400F0000203C204310601068093CA043014311601A68802109060A431A6010BD00F02E4000FF2E4070B51D4B1B6801241C40002802D0012816D02BE0184B1968012291431C
:400F400019601968022081431960154B19682E3081432038014319601968093881430A431A6018E00D4B1A6802218A431A600C4A10680725A8430143116011683020814350
:400F8000103801431160196801220A431A6002E00020FFF78BFE200070BDC04600F02E4000FF2E4010B500F0D4F8044A1368C02109020B43136000F0D0F810BD00010B4062
:400FC00010B500F0C6F808490A68084B1A408024E40122430A600A6813408022120213430B6000F0BAF810BD00010B40FF3FFFFF70B5050000F0ADF80400FFF769FF00283A
:4010000003D0FFF7DDFF012100E0002108482840084A1568084B2B40184310601368012901D1FFF7BFFF200000F097F870BDC0460404040010020B40FBFBFBFF10B5244B4E
:401040001B685B0715D5234B5B685B070ED5224B596A042001401F4C62688A4362605A6A82435A629B69002B00D098470420FFF7BFFF174B1B685B0518D5164B5B685B0521
:4010800010D5154B596A8022D2001140114842688A434260596A114A0A405A62DB69002B00D098478020C000FFF7A2FF084B1B685B030CD5074B5B685B0304D5064B1B6A81
:4010C000002B00D098478020C002FFF791FF10BD10020B404C0F002060130020FFFBFFFF04490A68D2B202239A43400018401043086070470000044004490A68D2B20823FD
:401100009A43C00018401043086070470000044004490A68D2B210239A43000118401043086070470000044004490A68D2B220239A434001184010430860704700000440F0
:401140000230800803D00138FDD1C046C046C0467047EFF3108072B6704780F3108870470160704701607047324B1A781202324B1B781A43314B1B781B02314909780B43CA
:4011800030498B4201D1072A06D0D42109018B4206D1042A04D102E02B4B042200E02A4B2A490B602A4B1A602A4B1B781B022A4A1278134380229201934202D0002B02D078
:4011C00002E0264B00E0254B254A1360254B1B781B02254A12781343244A934205D0244A934204D0052B05D103E0224B02E0214B00E0204B204A1360204B1B681B09204A84
:401200001268AA2A15D1012B13D9164B1B780E2B0FD11C4B1B781B021B4A127813431B4A13601B4B1B781B021A4A127813431A4A1360704759F1FF0F58F1FF0F5FF1FF0F2C
:401240005EF1FF0F580B0000580D00006C002E4074002E405BF1FF0F5AF1FF0F0220000078002E405DF1FF0F5CF1FF0F0F0F000005050000050F000080002E40EC0F00F006
:40128000E00F00F06DF2FF0F6CF2FF0F84002E406FF2FF0F6EF2FF0F94002E4010B5FFF731FD10BD10B5FFF715FD10BD10B500F04FF810BD10B500F053F810BD10B500F00A
:4012C0004FF8034800F02EF8032000F031F810BDA913000010B5024800F04AF810BDC046A913000000487047020200002B2070472B2070472B2070472B2070472B207047A4
:401300002B2070472B2070472B2070472B2070472B2070472B2070477047C0460120704701207047014B18677047C0460000002010B50400FFF70DFF044A1368C0218B4349
:40134000A4011C431460FFF708FF10BD0CE400E080225201014B1A607047C04600E100E080225201014B1A607047C04680E100E010B50400FFF7F4FF2000FFF7D3FF0320AC
:40138000FFF7D6FFFFF7E4FF10BDC04610B5FFF7E0FE044A136804218B43136030BFFFF7DCFE10BD10ED00E010B513F073FE10BD002243088B4274D303098B425FD3030AE6
:4013C0008B4244D3030B8B4228D3030C8B420DD3FF22090212BA030C8B4202D31212090265D0030B8B4219D300E0090AC30B8B4201D3CB03C01A5241830B8B4201D38B0349
:40140000C01A5241430B8B4201D34B03C01A5241030B8B4201D30B03C01A5241C30A8B4201D3CB02C01A5241830A8B4201D38B02C01A5241430A8B4201D34B02C01A5241F3
:40144000030A8B4201D30B02C01A5241CDD2C3098B4201D3CB01C01A524183098B4201D38B01C01A524143098B4201D34B01C01A524103098B4201D30B01C01A5241C30842
:401480008B4201D3CB00C01A524183088B4201D38B00C01A524143088B4201D34B00C01A5241411A00D20146524110467047FFE701B5002000F0F0F802BDC0460029F7D02E
:4014C00076E7704703460B437FD4002243088B4274D303098B425FD3030A8B4244D3030B8B4228D3030C8B420DD3FF22090212BA030C8B4202D31212090265D0030B8B42F7
:4015000019D300E0090AC30B8B4201D3CB03C01A5241830B8B4201D38B03C01A5241430B8B4201D34B03C01A5241030B8B4201D30B03C01A5241C30A8B4201D3CB02C01A0F
:401540005241830A8B4201D38B02C01A5241430A8B4201D34B02C01A5241030A8B4201D30B02C01A5241CDD2C3098B4201D3CB01C01A524183098B4201D38B01C01A524175
:4015800043098B4201D34B01C01A524103098B4201D30B01C01A5241C3088B4201D3CB00C01A524183088B4201D38B00C01A524143088B4201D34B00C01A5241411A00D2C6
:4015C00001465241104670475DE0CA0F00D04942031000D34042534000229C4603098B422DD3030A8B4212D3FC22890112BA030A8B420CD3890192118B4208D389019211CD
:401600008B4204D389013AD0921100E08909C3098B4201D3CB01C01A524183098B4201D38B01C01A524143098B4201D34B01C01A524103098B4201D30B01C01A5241C308FA
:401640008B4201D3CB00C01A524183088B4201D38B00C01A5241D9D243088B4201D34B00C01A5241411A00D20146634652415B10104601D34042002B00D54942704763466C
:401680005B1000D3404201B5002000F005F802BD0029F8D016E770477047C046014B18687047C0460C1300200E4B70B500251E000D4CE41AA410A54204D0AB00F358984762
:4016C0000135F8E713F080FE084B00251E00084CE41AA410A54204D0AB00F35898470135F8E770BDD4530100D4530100D4530100DC53010030B50024A24208D0035D651C98
:401700000C5DA34201D0181B02E02C00F4E7002030BD002310B59A4203D0CC5CC4540133F9E710BD03008218934202D019700133FAE77047134A1088810703D08107890FA0
:40174000401A001D11791030484381B25088820703D08207920F801A001D800040180A494030098980B2CA0701D0503080B2890706D504495422091F09785143081880B2E5
:40178000704700005A0F00209413002010B501F063FF10BD10B502F03FF80CF091F910BD10B501F05FFF10BD10B501F071FF10BD10B500F05BFA10BD10B507490446097871
:4017C0000220002907D1204601F0C6FF002802D120460CF021FC10BDF810002070B504460120002C12D02368002B0FD0616800290CD0074D06222889208118462968FFF787
:4018000088FF6968606809780170002070BD000094130020FFB585B0002768460E9D07734F481C460078002802D0082009B0F0BD10990F9801900095029105A807C800F031
:4018400007F90028F2D16946264603AB84460873002C19D0002115E08A00B75A082F09D990198078002805D0083FB7521878401C187005E0002914D00027B752901987706C
:40188000491CC9B2A942E7D360460028CED10F98002809D0109901F08FFA002804D00120C4E701208446EFE701F0F2FE2D480021416081600599016021888180022D07D337
:4018C000A1798171A17AC171A1890181218A418100211EE0481C19E082008B00A75AE65ABE46BE4211D26F463E80B4461E190296B678BE7001967646E6521719029EBB789F
:40190000B3706646A652019EBE70401CA842E3D3491CA942DED3134822460C3000906846037B0799069800F01BF90028B8D168460B4C007B60700B480C3001F0E5FE00288D
:40194000AED1084907480C3109F060FB0028A7D109F07AFB0028A3D10121217066E70000540F002088130020F8B5054636480F460078002802D002242046F8BD002F60D0F2
:4019800000243249002D16D02A89D0070DD02868002808D003881B3BE12B04D24088FB2801D81B2801D2012409E0900707D56868002804D1F7E70020088108604860002CD0
:4019C000DAD122482E8906811F481B21801D01804180042101711C490020891C0870F00705D019480622801D2968FFF792FE1749B00703D56A68144812788270124D0E4684
:401A0000AD1D281F0D60486001F0CCFE284601F0BBFE308910F09EF830890FF08FFA28880FF092FA308910F0FFF903461033FFF781FE1F21C018890140183880A91F8880AE
:401A40009AE7012498E70000540F002094130020FFB58446384F1C460020BB883F78054602460646002F11D100290ED0029999420BD36146002908D0002C06D00A990029B5
:401A800006D02E4B0B99994202D2012004B0F0BD002144E0AB001F19BF78002F3BD0E35A002B38D07B43591889B22B0000F04AF8050410161C253100A7782388BC46FF279F
:401AC000233BEB37BB4222D26346032B1FD322E0A388002B1FD0302B19D31CE02389002B19D0282B13D316E0A289002A13D01346134F233BBB420AD20DE0268A002A0AD068
:401B000033460F4F233BBB4201D2964203D901200EE0002001E000280AD16D1CEDB2099B9D42B7D31C2463435B1802998B42ACD89642AAD8AAE70000540F00207902000076
:401B4000BAFF000030B47446641E2578641CAB4200D21D46635D5B00E31830BC18470000FFB583B0002469460C801F4606468C80002806D00598002803D0049830438007BD
:401B800001D0012466E0002FFBD03449049809888842F6D3FFF79EFBFFF78CFB00F012FC002855D100F07AFD002851D12C49084601F036F905042D0C4AD12A4804990660F4
:401BC00081800021C18007810C98007AC00704D0684601F076FD040007D10C98007A800703D501A801F082FD0446BF1DFEB2002C20D13146059800F05DF804001AD110F082
:401C000021F9040016D16A461088928808368518144AF1B29088D288AEB29319984207D3401B801A80B201F0EBFB050007D000E0FF25012400F05EFA002D04D008E0F8B251
:401C400000F01CF9F6E700F081FA07490120087000F0CAFB204607B0F0BD0000580F0020A11D0000A0130020600F002010B503480078012801D101F065FA10BD600F0020D9
:401C800070B5084B0446DA889E8800205518B54206D81D68AA182260DA885118D98070BD032070BDA01300200148008970470000A0130020F0B587B007460D4600208900BA
:401CC000009006916846FFF7DBFF844600285DD1304800990160002117E02E4B88001A680629115406D22C4C0419667882185670628805E0C419203CA67A821856702289A0
:401D00001B68C018491C4280C9B2A942E5D300242DE0601CC2B2059025E01E4FA30039689600581840887118039604904E88B04217D938466F46FE80B6464F786E4677714B
:401D40000297049F4F800168039F5E18767879184E700168764659184E800068029F18184770521CD2B2AA42D7D30598C4B2AC42CFD36046002809D168460699FFF780FFB1
:401D80008446002802D1054900980860604607B0F0BD0000640F002000540100680F00207047000010B5002809D005494A68002A05D0011F08788000105801F0CFFA10BDFC
:401DC000640F002010B50446FFF76EFFC0B2801DA0420CD307484068002808D0A100405801F02EFA002801D00470001D10BD002010BD0000640F0020F8B516460D46044648
:401E0000FFF752FFC0B2801DA04203D20020C0430090F8BDB2B2E9B2684601F037FA0099481C03D0024AA000526811500098F8BD640F0020F8B50746FFF736FF801DC6B26D
:401E40000A49002005460C680DE06178002907D06188B94202D32078FFF7B4FF002804D1241D6D1CEDB2B542EFD3F8BD640F002010B5002801D0FFF795FF10BD70B5064683
:401E80000948002504680BE06178002905D062882078121D0023FFF7AFFF241D6D1CEDB2B542F1D370BD0000640F0020FFB581B00A9F16000C4620D000F0F2F805460428EB
:401EC0001BD0002F0CD03846FFF7B4FF20492A0151184860002810D03A460499FFF719FC1B4928010E504618778101980570200406D47D20C000444304E0FF2005B0F0BD5A
:401F00006404640C00F0BAF80746042807D000F04FFAA0420BD800F04BFA201A03E0204600F0AAFA0020F06035720020E6E700F03FFA009000F0B6FA00980121001B0090CB
:401F400000F0ECF802493A0151180098C860E6E7AC130020F8B5060116483418217A042903D0E068002802D017E00020F8BD00F01FFA054600F096FA00F0A0F804280CD0C7
:401F800001010C480F18F8680021451900F0C6F80020F860284600F06FFA6068054D002801D0FFF765FF042020720020A8516081E060DAE7AC130020FEB500266A463046DC
:401FC00001232549050169180D7A042D02D0C96800291BD000211154401CC0B20428F0D300246846005D002830D01B482101081841894768056802910021016041600422F8
:4020000041810272C160002E02D015E01354E3E700F054F804280ED001010F4808180190C6680021304600F079F801980021C160304600F021FA0126002D07D0384602990D
:40204000A847002F02D03846FFF712FF641CE4B2042CC6D3FEBD0000AC1300200EB5002005216A4600901181508103486946006810F04DFD0EBD00006C0F0020074A002043
:40208000010189180B7A042B02D0C968002903D0401CC0B20428F3D370470000AC1300200549002002015218127A042A03D0401CC0B20428F6D37047AC13002030B50A4B79
:4020C00004200A4C00210A011219157A042D06D0D268002A03D09A4201D808461346491CC9B20429EFD330BDFFFF0000AC1300207047000030B50020074C054604230201C9
:4021000011190B72A5504D60401C4D81C0B2CD600428F4D330BD0000AC13002030B5094C00231A011219157A042D04D0D568002906D02D18D5605B1CDBB2042BF1D330BDFD
:402140002D1AF7E7AC130020002070471CB5002469460C70142001902346054A054810F0DBFC04480068401C00D1FF2420461CBDC92100006C0F00203EB5124A0146FF2046
:4021800000230124126800290DD0012914D0042908D104206946009308814B81104610F0B6FC80B23EBD68460093048143816946104610F0A7FCF4E76846009304814381BC
:4021C0006946EBE76C0F002070B545890468416800890300FFF7B6FC08280509091E22282628002007F0BCFB1EE0022908D0C8B22A4621460EF0EEFD2046FFF739FE13E0FB
:4022000002202A4621460EF0E5FD2946204600F00DF809E0002010F079F905E02046FFF7CBFE01E0FFF778F8002070BD014B0022DB681847700F002070B54489056800894B
:40224000022803D0032809D0FF2070BD2246094C0023A46829460120A04708E0FFF7A4FA241DA2B200232946022008F082FD002070BD0000700F0020704700000248002164
:402280004160018041807047700F002070B50C46002186B016460391012802D0022859D116E003A9012008F0B9FD01281BD1039D324621462846FFF72CFA00952878019083
:4022C0000220694608814E816846FFF7B5FF41E0214D002B686809D0049004A9022008F09DFD01281DD0022006B070BD002812D0298840182146FFF70CFA28880024801907
:4023000080B228806988091D884206D12C801348FFF792FF03E00320E6E788421AD96C6018E004986860E278A378110219430B4A698000231060E356536003231381518198
:40234000A1788170E178C1706178417021780170042028800020C7E7700F0020EC1300203EB515460C46022803D004280CD000203EBD0091019002206946088107484A8187
:40238000006810F0C4FB07E00EF024FD044B0022DB6829462046984701203EBD6C0F0020700F0020014AD16090607047700F0020034801688068081A0A214843000970473C
:4023C000F813002010B5FEF779FF482204490548FFF79FF903490120C870002010BD00001C540100FC17002010B5FEF75FFF10BD70B5134C2368002B08D0207B1149C20703
:4024000005D04008400020738868A08070BD88680B4AA18880B29268814203D90A4D691A091802E0814202D2411A5118A160A080A0689842EAD310F087FB00F013F870BD94
:40244000F8130020C0102E40FFFF000010B508461946FFF7A7FF10BD704710B5FFF780FF10BD000003480021016041608160C16070470000F8130020024610B5FF20002AB4
:402480000CD0FFF7EFFF064C0321207B0843207310010A21FFF712F82060002010BD0000F813002000B504480A21806848430209FFF7D8FF104600BDF81300200248007B1F
:4024C0008007C00F70470000F813002010B54B490868002802DA4A4B01221A70022290430860484800694549C00B4031096A0246C907C90F0A4259D0012000F0E5FA3F4824
:402500000E216C30FEF72EFE3E4820218430FEF729FE3C4814219C30FEF724FE3948FF21C131A430FEF71EFE3648FF212F31B030FEF718FE33483449BC30FEF713FE3148B8
:402540003249AC30FEF70EFE30492E48491CB430FEF708FE2B482E49B830FEF703FE29482C49CC30FEF7FEFD26482B490830FEF7F9FD24482949A830FEF7F4FD21482849BB
:402580008830FEF7EFFD1F4826498C30FEF7EAFD1C481921C9029030FEF7E4FDFEF7E4FDFEF7A0FEC0B2022812D01FE000290BD0002101420AD0114801216030FEF7D2FD1E
:4025C0000120FEF76FFE97E70121F2E7FF2010BD15491648FEF7C6FD14481549001DFEF7C1FD124800210830FEF7BCFD54200449C043891C0870002010BD000000F02E4068
:40260000800F002000002E40320300002F3F00003102000010520000EC160000FA12000031D000003AE300009956000080012E40F80F000070B50646581C80B245086D0063
:40264000002408E0304600F0C1F81055000A1119A41C4870A4B2AC42F4D3D80705D0D0182038D15CC47FD454C17770BD30B50A4C002100195B1E07E0541864782502545C2E
:402680002C430480891C89B29942F5DB994201D1515C018030BD000000102E4010B5FF2000F012FA0F49FF2048700E481021801D41800121417001700A490020C91C48700E
:4026C000FFF704FF04000AD100F02EF907210648FEF746FD044807211830FEF741FD204610BD0000800F0020CC112E4070B5002405465B1E0AE0284600F068F8010A161932
:4027000071702D1D1055A41CADB2A4B29C42F2DB9C4203D1284600F059F8105570BD000070B500210A4D5B1E0AE0541864782602545C344346193480001D891C80B289B21D
:402740009942F2DB994202D1515C4019018070BD00102E40F0B50599091FCFB200217E1E0BE0541864782502545C2C43164D45192C80001D891C80B289B2B142F1DBFC0751
:4027800012D01C78515C24020F4A0C4381180C809C785D78001D210280B2294384182180001D80B2D9780CE059781A7809021143054A84182180001DD9789B78090280B267
:4027C000194380180180F0BD00102E40014940180088704700102E4010B50B490020487000F0A2F8002000F095F9002000F082F907210648FEF7B4FC044807211830FEF76A
:40280000AFFC002010BD0000830F0020CC112E4010B50C48007801280FD100F095FF00F0DDF8002804D10848016A490849000162054802213030FEF795FC02490020C91EC3
:40284000087010BD830F002040F02E4010B50B46062812D006DC01280CD0032801D1FFF7BBFF10BD0A28FCD00B28FAD105480078107010BDFFF712FF10BD1146184600F0B5
:4028800065F910BD860F0020F8B5244DAC6A0127A007234E002816DA307806280ED1286A384328621F480069F903084381B21D481030FEF757FC042000F006F91748022194
:4028C0002830FEF74DFCE00718D000F0ADFF01280FD1002000F0FAFF062000F0F5F81049FF20C91E48707078002802D1686B384368630A4801212830FEF732FCE0050BD5FB
:402900003078042802D1052000F0DEF80348FF2101312830FEF724FCF8BD000040F02E40830F002000002E4010B503212348FEF719FC0120FEF7B2FC20483038406A204C80
:4029400080076178800F890001431C480C38FEF709FC6078002808D0401E022181401820FEF796FEC000083800E0B82081B21548FEF7F8FB1348032109021438FEF7F2FB36
:4029800010481149B830FEF7EDFB612189010F48FEF7E8FB0D480321001FFEF7E3FB0C490C48FEF7DFFB0B480B496038FEF7DAFB084801218838FEF7D5FB10BD70F02E40E7
:4029C000860F0020D8102E4090890000041E2E40FF0F000058122E4020900000044800684007400F022801D0002070470120704700010B4000B5FFF7F1FF002805D0094864
:402A00000168C908C900016000BD0748016A490849000162054801690122D2039143016100BD000000010B4040F02E4000002E400849087806280BD148780749002803D1DD
:402A4000486B400840004863C86A01221043C86270470000830F002040F02E400148007870470000830F002000B50300FFF76AF8080D050D0B070507090D012000BD032001
:402A800000BD042000BD022000BDFF2000BD0000074A9168D26889B2064B92B2994204D105498A4201D1012100E000210170704780002E4033D000003FE30000014948706D
:402AC00070470000830F002010B50446FEF7F2FB072C01D9FF2C01D102480470FEF7E6FB10BD0000830F00200149487070470000800F002010B5064A012805D01921C902DF
:402B00001046FEF72FFB10BD1D21C902F8E7000090002E4010B50A4A141D012808D009491046FEF71FFB08492046FEF71BFB10BD04491046891CFEF715FB0349491DF3E703
:402B400088002E4031D000003AE3000070B50C460546FEF7C7FBC0B202280E49287804D0FF2810D04C280CD810E0FF2809D10A4AD0680004800F032801D0087807E0906996
:402B8000000A553803E00878207070BD4F382070087070BD820F002000002E40F0B50122002834D0002932D00424420600D00524792342065B06D21800D0641C0346002211
:402BC0001EE00C2516466E43124D00277519AF72104F002ABB51696007D0661EB24209D10D4E86197606760E05E05E06760E8027BE1B00E080269B198919521C2E81D2B219
:402C0000A242DED303480549006B002288611046F0BD000084160020790200008C0F002018B50020694608700A48006900280ED0132149014018047E684604704F21C90075
:402C4000054800F059F8A04201D0012018BD002018BD00008C0F002008140020074900200C2242435218927A012A05D0401CC0B20628F5D30020704701207047841600206B
:402C8000F8B50E000446154609D0194F19497868A04202D94018A04201D38D4201D90120F8BD31462046FEF725FD00281ED02A4631462046FEF72DFDE8B200210C224A43FB
:402CC000D21913895568EE18A6420BD90126641B1B1B9672834209DA1469C01A044AC0B220329676491CC9B20629E7D30020F8BD8416002079020000034610B50020024674
:402D000004E09C5C2018521CC0B292B28A42F8D310BD000070B500F05FF8084C064A216907480D46FEF7F5FC05492846FFF736FFFFF776FF207070BD790200008C0F002090
:402D400008140020002070470020054A002902D0012902D002E0906000E0D060002070478C0F002070B5084C154608460549E26889182A46FEF7CDFCE0684019E06028B222
:402D800070BD0000081400208C0F00203EB50A226946FFF7E7FF044606480A2200686946FEF7A8FC002802D00020C0433EBD20463EBD0000900F0020002802D0044A91427E
:402DC00001D2FF20704703494A61086100207047790200008C0F0020024800218160C160704700008C0F002070B5074C15460548A26880182A46FFF743FFA0684019A06013
:402E000028B270BD081400208C0F002010B503490A220968FFF7E8FF10BD0000900F002010B50F4A002313600E4A13600E4B18600E4801600E49012008600E4908600002D5
:402E400090600E490C4808600D4914300860FF381538506000F0BCF800F0CAF9002010BDC00F0020A80F0020D40F0020D80F0020C40F0020B40F0020CC170020B80F002045
:402E8000CC0F0020014610B50020002910D0094B1A689C685118A14209D25868196080188A0704D08A07920F891A091D196010BD002010BDA80F0020F8B50024164E671EEC
:402EC000321F3D463168136806E01422624310328A58521C1BD0641C9C42F6D36A1C14D02C461422544322460C3288500C214843FFF7C8FF3168002808510AD0316800203C
:402F0000103408517068401C70602846F8BD2546E4E73846F8BD0000B80F0020F3B50026F64381B000281BDB1E490968884217D80299002914D01B4F142204463F1D544311
:402F40002546396810354859401C09D0FEF7B2F938682F1F4159C359994203DBFEF7A6F93046FEBD214608310091465801590C20704308180C220299FEF7CBFB0948761CD9
:402F8000001D0068C159B14200D100260549009A091D865008684159491C4151FEF786F90020FEBDB40F0020002803DB07490968884202D90020C043704704491422091D82
:402FC000096850431030085870470000B40F0020F0B500200D4A451E0346171F50600FE014260146714314680E1DA3510C461668083433511668083435511468401C6350CB
:4030000039688842ECD30020F0BD0000B80F0020F3B50026F64381B0002841DB2349096888423DD8029900293AD0204F142204463F1D54432546396810354859401C2FD07D
:40304000FEF738F93868415900292BD0211D009146580C21005971430F46C1190C220298FEF757FB11480021001D0068761C00590C34C0190160416081600C48001D006828
:403080000159B14200D100260849009A091D865008684159491E4151FEF708F90020FEBD3046FEBDFEF702F9FAE70000B40F0020FEB504460D4600201E49089E0860471EE2
:4030C000009001900290002C11D0486885420ED2002A0CD0002E0AD0642E08D808460C3001681C2068430C18207A002801D03846FEBD0120226020721846FFF7DDFE60604B
:40310000401C13D06681A6810A4827610C3067610179A94200D205710021684601810A462846029B00F040F82846FEBD00202072DDE70000C00F002038B50124009400F0BF
:4031400039F838BDFEB50027164EFF433D4600240EE01C20316860430818017A002906D04068FFF721FF002801D0254603E0641C3079A042EDDA681C12D01C2130684D4360
:403180004419FEF797F869466068FFF741FF0546FEF78CF8002DD9D1216868468847D5E7FEBD0000CC0F002038B50024009400F001F838BD1FB500220C49541E0A6000289C
:4031C00011DB496888420ED808491C220C31096850430818406801A9FFF7A0FE401C02D0002004B010BD2046FBE70000C00F0020F0B50021114A4D1E174611710C3F0B469F
:40320000BD6016E008461C2460431668041D355114680646235014680836A3551468361DA353044616680A34335318301468491C255078688142E5D30020F0BDCC0F002026
:4032400038B500210091002811DB0F49097888420DDA0D4D04010C3529680859002807D0201D0818694600F06FF9002801D0002038BDFEF71FF828680F34015D491E015514
:40328000FEF714F8009838BDDC0F0020F7B582B0002502986E1E06602E48D21C024017462D4A2C4610460C380178106805E02301C358002B0FD0641CE4B28C42F7D3711C06
:4032C00028D03401211D40180191039900F02AF900281FD101E02646F1E71F48016820460C300F521C480399026820460E30115419480399026820460F3011540398784380
:4033000000F0A0F8144900280968085102D00024009011E001251AE00F48016801980818009900F02CF9002801D0012502E00098C0190090641CE4B203988442ECD3002D93
:4033400005D10298066004480179491C0171284605B0F0BDFCFF0000E80F0020F8B50D4600216A468C461180002839DB23490978884235DA214B04010C3319680A59002A04
:403380002ED020460C300B5A801C0E5C184670438018954224D3854222D2002006E007465F43BF18AF4206D0401CC0B2B042F6D36046002814D0114E271DC8190C366A468C
:4033C000294600F006F900280AD168460088012808D030682946C01900F0D1F8002803D00120F8BD0020F8BDFDF764FF30680F34015D491C0155FDF759FFF3E7DC0F00207A
:40340000F8B50F46002400F031F8002817D10C4900220B460C334A600EE021011D680E466A501D680C36AA53B61C1D680F31AA551D68641C6A54E4B2BC42EED31A71F8BD37
:40344000DC0F002000280BD0C01C074A81085068890053884118994203D89368516018187047002070470000DC0F0020F8B5064600200F4D009029700C0121466846FEF733
:40348000FFFB00280CD129460C3100980860301B001F84B221466846FEF7F2FB002801D0FF20F8BD6C800098A8600020F8BD0000DC0F0020F8B5002827DB1949097888420D
:4034C00023DA174C05010C342168485900281CD028460C30085A009028460E300E5C401C0E5420682F1DC01900F064F800280CD12068002445590EE0094829460C300068DE
:40350000C01900F03CF8002801D00120F8BD00982D18641CE4B2B442EED30020F8BD0000DC0F002030B50D4604000BD0A800FFF789FF6060002805D000202570C0436080A3
:40354000002030BD012030BD70B50D46040005D0002D03D00220205E002801DA012070BDFDF7A8FE0221615E60688900405828606088401E6080FDF799FE002070BD70B5DE
:403580000D46040007D0002D05D002212078615E401E814201DB012070BDFDF78BFE6088401C00B26080616880000D50FDF77EFE002070BD10B5040009D02278002160683B
:4035C000FEF7B0F80020C0436080002010BD012010BDF0B500231D46002802D00224045F0AE00120F0BD46689F00F6598E4201D1012503E05B1CDBB29C42F4DA157000204E
:40360000F0BD00000148007870470000F00F00207CB505460024FEF7C7F8A8796946087000A8062229460130FEF773F80021684606F080FC0C2806D0072806D01F2806D06D
:40364000122806D006E0022404E0042402E0272400E0012420467CBD01480121417270470419002010B502280BD0032802D0042809D102E000F0B8F905E000F063FAFF2896
:4036800001D100F073FAFFF7E9F9FFF7EDF910BD10B500F09BFAFFF7E1F9FFF7E5F910BD70B504460025FEF77FF8002C06D0A079012803D8214602F087FE00E0012528462E
:4036C00070BD01460120002902D05020088000207047000001460120002903D0024800780870002070470000F20F002001460120002905D0034854220078504308800020FB
:4037000070470000F20F002010B502460D49FE204870032410460FF01DFD002810D10FF0C1FC00280CD107F0D5FB002808D100F05DFC002804D106F0A3FE002800D1002456
:40374000204610BDF00F002002480021018280210180704700102E4070B50025044600280ED0A07901280BD8FEF71EF8A0790028204602D003F07AFA03E003F04FFA00E009
:403780000125284670BD0000014610B50120002904D006220248FDF7BCFF002010BD0000FC0F002001460120002903D0087802490870002070470000F20F0020F0B589B068
:4037C00015460F4606460124FDF7EEFF002E20D0002F1ED0002D1CD0102239466846FDF798FF1022314604A8FDF793FF102168460FF0D2FB102104A80FF0CEFB2B461022BB
:4038000004A9684604F008FB102128460FF0C4FB0024204609B0F0BD10B506F007FB04F0EDFC07F09FF910BD0148007A704700000419002038B504460120002C20D06178EF
:4038400001291DD800290BD0FF25E535FDF7ACFF0C4828180088C0B22070072803D00EE0FF25CD35F2E70020694608706846FFF70FF969460878012801D108202070002046
:4038800038BD000000102E40014A002192681047F00F002008B500226B461A7026280CD0094A342852680BD0352805D1900703D50021352007F0EAFB08BD19462620F9E7F3
:4038C000D007F9D03420F5E7F00F0020014908727047000004190020F8B504460120002C26D06178012902D92278092A20D8002905D0FF25E5352078092803D004E0FF2564
:40390000CD35F8E708202070FDF74EFF2078114F114E08280DD00020FFF7FCF870780128207810D00D4969180880FE2070700020F8BD0120FFF7EEF80720B8810549203188
:4039400088800120F2E7B8810248217820308180EBE70000C0112E40F00F002000102E4070B50E46050001D0002400E00C4C002C11D0E28A500609D5D107C90F022003F00D
:403980007BFAE08A40218843E08204E0D107C90F012003F071FA3146284602F0D7FE70BD64180020F8B50546002004460D4E009013E022466946284601F00AF90098002899
:4039C00001D00FF0A9FBA878214602F011FCA878214602F0FFFB641CE4B2308AA042E8D8F8BD000030190020F8B54E4CFFF736F8012847D14C480078002843D002F02EFEB9
:403A000000283FD005F014FF00283BD0474E7078C00703D000F028FD012833D0307E00287DD17078002500285BD0000706D540488089070B00F02EF9384370D13B484178A4
:403A4000684604F027FA21793A4CA2788918C9B2814262D802F002FE002860D0344860300789324E203602F0B3FB6846008802F0EFFB02F0A3FC30490988884203D1012068
:403A8000FFF722F84BE02D49012008702748807B00281DD0002F1BD04036F07E002817D123486030008821494000C031498981420AD26078002807D103F01CFA2049088AC4
:403AC00003221202104308822078002800D0257002F002FC0120FEF7F1FF00F025FC174C15E002F0BBFD002819D0102402F066FC214602F025FB02F0ABFB104C01202070CB
:403B000002F0EAFB0020FEF7D9FF00F00DFC20780128B4D1FEF76EFF25700020F8BDFF20F8BD00003C180020800F002044180020A0102E4016100020281000200210002055
:403B4000E0112E4010B50848FF244078002809D102F084FD012805D1FEF75AFE0720FEF7B3FF0024204610BD4418002038B5FEF775FF012801D0002038BD02F06FFD0028A9
:403B80000AD0114C6078C00703D000F06DFC012802D0207E002801D0FF2038BD617800290FD0684604F076F9022806D96846008802F04EFB012002F099FB0320FEF784FFAF
:403BC000D9E70020F7E700004418002038B51E4CFEF744FF042813D0052811D0062812D003282AD007280AD100206946087002460120FEF72BFEFEF731FF0128FBD138BDC3
:403C000000F0B2FB38BD02F089FB00F0ADFB02F00FFC8007800F0228F4D10C4841880029F0D05B21095D0029ECD101210170A07D0140022003F020F938BD02F073FB01207F
:403C4000FEF742FF38BD00006418002016100020F8B50646002403F08DF90546304603F0A3F903460A480021068A0DE001228A401046174628401F40002803D0002F01D1B5
:403C8000224394B2491CC9B28E42EFD82046F8BD3019002070B500252C460A4E03E0002C01D0002000E030460079002803D02046FFF7CEFF0543641C2406240EEFD0284606
:403CC00070BD0000641800201CB50020694648706846FFF7AFFD01AA69460A20FEF7B6FD6946042008561CBD70B50D4601F056FB04000BD02079002808D0FDF755FDE1784C
:403D0000A0782A4602F0A8FD002070BD022070BD01480078704700003C1800204030C07E002800D00120704700B500F001F800BD902148430749084A40186030417F491C18
:403D4000C9B24177D289914201D300214177C8B270470000441800203019002013B501F01DFB04000BD001F0BAFE002807D0214601AA0A310620FEF769FD00201CBD0220DE
:403D80001CBD000010B50C4601F008FB00280AD001F0A5FE002806D0224604490A20FEF755FD002010BD022010BD000025180020F3B581B0074601460026029803F0D2F842
:403DC0000446002F01D0002500E0154D002D21D0284601F019FB032C04D13946029803F01DF906463846029902F0F4F9032C06D0002C10D00121384601F00CFC03E0314613
:403E0000384603F011FB284602F09AF80221284602F0B0F8FEBD3846029902F0DBF9FEBD6418002010B5044600F066FA002804D103F0C4FF002801D00C2010BD2078611CDE
:403E400002F01CFEFF2801D01F2010BD02F062FEFF280AD02178621C02F044F9044821780068026B601C904710BD072010BD00003C10002010B503F0A1FF002801D00C20E2
:403E800010BD02F0DDFD03480068C06A8047002010BD00003C10002070B50D46044610210FF07AF81021601806460FF075F8334610221946204603F0AFFF102130460FF0F0
:403EC0006BF802202870204606F010FA70BD0000F8B504464078217802028006870FE0781143A67809050002090D0643084601F055FA00210546F2B2002812D0002C10D0BD
:403F0000022F0ED0032F0CD0002A0AD00279092A07D0002A05D0134A5A23527E1B5C9A4207D82889002106F016F920460FF0F4F8FF21002914D10C4822460068294643696B
:403F400030469847C0B2FF280AD128464030817EF2B2491C8176FF232146284600F0E3F8F8BD0000FC170020581000200020704710B5044603F022FF002801D00C2010BD7D
:403F80002078611C02F07AFDFF2808D002F0B2FC044821780068426B601C904710BD1F2010BD00003C10002010B500F06BF906F067FA002010BD10B5044600786178E2783B
:403FC0000843A17811430843217908436179084305D003F0E5FE002803D00C2010BD122010BD204602F042FE002010BD10B5FDF779F902F0E1FF044804F044F802F084FCA6
:40400000012000F003F810BD0C180020F1B586B003A8009005A8019028489F22817A114081726846FDF7DAFB002845D169460989C90705D0224806990068C26868469047E3
:4040400069460989890706D5002835D11D480068816A0698884700282ED11B4E0025757075737571F575357675767575B570F570B5713746F5730120D03738731F20F880D0
:40408000FF2130467972A0300176457600F0E8FA00242046069901F0CDFC002803D1641C2406240EF5D0FD720749BD72B573C0310D704D704D600D7207B0F0BDFC17002027
:4040C000581000203C1000204418002070B505460E46084602F04EFF0446304602F064FF0121A9400A46224001400A4301D0012070BD002070BD10B50446084602F054FF91
:404100000121A140014201D0012010BD002010BD10B5FEF7A3FC032804D102F003F90120FEF7D2FC10BDFEB51C4616460F46054601F006FFA878FFF7F7FD02460190334632
:4041400039460094284600F00DF8002808D1A8780199FFF705FCFF2C02D138460EF0DCFFFEBD0000FFB585B005460E980C46FF2810D02B49C00009680A5840180179C079C2
:404180005278814201D9012601E09006860F6846038108E06078A1788006860FE0780002014368460181284601F0A4FC070007D021462846079A00F09FFC384609B0F0BDAF
:4041C000304600F04DFD04AE0346039002AA29460096204600F0D9FB3C20405D002818D0284601F087FC012813D0684600890096C0B20190A878231DFF22079902F05AFA78
:4042000068460089039BC2B2A878079902F0FCFDD3E7684600890021C0B20091E9E7000054100020F8B5002600253046FFF710FD07001DD090201149704340186030447F54
:4042400012E0601CFDF73AF9CCB23846E040C007C00F07D02146304601F0B2FF21463046FFF7A6FD6D1CEDB20548018AA942E8D8761C3606360ED7D0F8BD00004418002096
:404280003019002010B502F03FFB0020FFF7BEFE0EF0D8FF002010BDF8B5002400F0DEF80123012800D10124104F00203E4620360425082203E0002801D0002100E0314636
:4042C0000979002907D001290BD002290BD0114681402143CCB2401C0006000EEBD07C70F8BD1C43F7E72C43F5E700004418002010B5FFF7D1FF10BD10B5044606F01DFAF3
:40430000002802D1601C00F001F810BD1CB500240094062269460194FDF7ECF9002800D1122420461CBD000070B50E4CFCF711FF0546FEF793FB062802D02078012803D030
:404340002846FCF70AFF70BDFDF720F82846FCF704FFFEF783FB0628F5D020780028E5D170BD00000210002010B5FCF7F2FE0446FEF774FB012809D0FEF770FB022805D044
:40438000FDF704F82046FCF7E8FEEEE72046FCF7E4FE10BD10B50B4681791943817103D08078114602F0CCFC10BD10B582798A43827102D1807802F0D7FC10BD30B50C4CD0
:4043C0000220A28A0B4B9978002901D0022906D11D785B78EB18282B01D9032002E0032900D101205105490DC0020143A18230BDC0112E400C10002000B500F035F800281A
:4044000007D0012805D0032801D0042801D0002000BD012000BD000002460448018B0020C908114200D001207047000000102E40014600B50020C90701D000F00FF800BDF8
:40444000014600B50020C90701D000F007F800BD01480068704700000410002001480088000A704720102E400448008B410501D5042070474007800F7047000000102E402E
:4044800001484068704700000410002038B50446000610D5FFF7E8FF01280CD1684601F05BFF6846007800F02BFB012001F0B0FD0220FFF71DFF600708D5074801790129BC
:4044C00004D1002101712620FFF7E4F90348006801692046884738BD101000203C10002010B501460A4A007800241070FFF7B6FF0128084603D002F025FB204610BD00F0A2
:40450000E7F80400F9D1034801210170F5E700000C1000200419002070B50446FFF79EFF002801D00C2070BDA27B01211F48002A827801D00A4301E0520852008270627905
:40454000012A14D0C17849084900C170184D2868016820468847207901280CD06188208803F0DEF92080207904280FD015E0C2780A43C270EAE72868C168E01D8847E01D57
:4045800002F060FB0B48808C208006E02868C168E01D8847E01D02F055FB074920798870204602F0DDFA002070BD0000441800203C100020FC1700200C10002008B501781B
:4045C000FFF74CFF814201D10C2008BD002914D0072069460870FFF70FFF012807D10121684600F0E5F8012801D0092008BDFFF7E5FE02F0E9FA012011E0FFF7FDFE012835
:4046000006D1684601F0A8FE6846007800F0ACFA02F0D0FAFFF722FF0028FBD10220FFF767FE002008BD000010B501460A4A007800245070FFF712FF0128084603D002F07A
:404640005FFB204610BD00F065F80400F9D1034801214170F5E700000C1000200419002038B568460EF0EEFC002801D01F2038BD01210098C9020180418000250571457157
:40468000857107214173857302F06AFA009C202200212046FDF746F825702A460021601CFDF740F8204602F04DFA204602F028FB00980EF031FD062200210448FDF732F8E4
:4046C00002480C388560002038BD000010100020F8B5044600250D4800950078012806D068460EF0AFFC002803D007250CE00C250AE0074E009830602278611C401CFDF70C
:4047000008F83168207808702846F8BD0419002004100020F8B5044600250D4800954078012806D068460EF08DFC002803D007250CE00C250AE0074E009870602278611C48
:40474000401CFCF7E6FF7168207808702846F8BD04190020041000200346084800B5834209D8184600F01AFE002804D00089984201D1012000BD002000BD0000FF0E000035
:40478000074A9179491C8906890E917138220A4092014907090E1143084302490840704744180020FF0E0000C006C00E70470000F8B507460E4600240D4803E0002C01D00F
:4047C000002500E005462979002905D0641C2406240EF3D00020F8BD0021204601F02AF92E712046FFF7CCFF28813C700120F8BD6418002010B503F043FB0222002100F002
:4048000003F802F01DF810BD10B5094B40074907000F090F185A595A40185043C0086421FCF74CFE002800D1012080B210BD000064540100F7B53D20405C88B015460C46DC
:40484000002802D02878042802D200200BB0F0BD6946087200262046FFF760FA012800D00126204603A938300191009023460327A17E34333246206A03F01EFC02A80899E2
:4048800000900B46019120463A4603A9243003F0A3FA02466846007A2870204601F0B6F81046D3E7FFB587B00C4605461078694608723D20005D1746002826D000262046F8
:4048C000FFF72CFA012800D00126204603A93830019100902346A17E34333246206A03F0EBFB02A80090291D019120462B1D03A924300A9A03F070FA02006846007A388073
:4049000002D1204601F082F810460BB0F0BDF0B505463C20405C89B016460C4600280CD0307869460873002806D000272046FFF7F5F9012803D003E01F2009B0F0BD012755
:4049400003200890204604A93830019100902346E17E34333A46E06903F0AEFB6846007B03A928180290009120462B46019504A92430089A03F064FA02466846007B3070A1
:40498000204601F04DF81046D7E7FFB505463C20405C89B016460C46002810D0084601F0A9F801280BD0308869468883002809D000272046FFF7B2F9012805D005E00020D9
:4049C0000DB0F0BD0220FBE70127204603A93830019100902346E17E34333A46E06903F06BFB291D2B1D07A8129A6D4607C5204603A924300C9A03F023FA02466846808BAF
:404A00003080204601F00CF81046D9E770B50D460446FFF783F901280AD0E87AA97A00020143A07801F0F8FD012808D0002070BD00222421204602F0C5FE242070BD2821CB
:404A40004C200155204600F0B1FB282070BD0000002801D0002000E003484030C07F012800D0002070470000641800200146002049070ED50021084B03E0002901D0002291
:404A800000E01A461279022A04D0491C0906090EF3D0704701207047641800200146002049070ED50021084B03E0002901D0002200E01A461279022A04D0491C0906090E4F
:404AC000F3D07047012070476418002010B5044680346068002803D00EF032FB0020606010BD4030417070474030817070474030017070470171704792001018C166704721
:404B000070B53C2501F09CF9040004D020460021433001F0BBFCFF222946204600F0E8FB002C02D0A07801F00DF970BD10B5002801D0002000E00348002802D0008905F06B
:404B400051FB10BD6418002010B5002801D0002000E00448002804D00179072901D100F047F810BD6418002010B501F069F9002802D0807801F0E6F810BD002070470000E9
:404B800070B50546008A00281ED01049F122897A1140C90618D5294640314A8A098A521C4A4392B2D10800D10121540801E0621A94B2A042FBD9FEF725FD012804D1298A9A
:404BC000A878224601F0FEFD70BD0000FC17002010B50023054C0B60248A944204D992001018C26E0A60C36610BD00003019002038B5044600200090A079002814D14020BC
:404C0000015D052901D00E290ED168460EF02AFA002809D12046009902F0B2FD03481021C28A2046FFF7B6FB38BD0000FC17002010B50B4604460146184602F023FA002856
:404C400002D020460EF072FA10BD13B5044601AA11460620FDF7FAFD6846818861811CBD002800D10220704770470000F8B504462346401D543300909A1EA078911E01F061
:404C800087FB25464035A88A298A8000FCF716FC401E81B2688A884203D96982A07802F035F9698A8C20015120460021433001F0EDFB27480088E88103F0E2F8E989891CD4
:404CC0008AB26179FFF7A0FD01F0BAFD03F0D8F82A8A6179FFF798FD074601F0A5FD688A002806D01B49088A032212021043088202E0002002F0FEF81648803801886E8A2A
:404D0000002E0CD0304648431349FCF7C1FC0004000C01D0401C80B21049488002E00F4800214180288A704381B2A07801F0F6FFFF2228374932B9B21346204602F0F4FD13
:404D4000E98AA07801F04AFFA07801F075FAF8BD80102E40E0112E4071020000161000207FB504468034616805460E46183108226846FCF7CEFC31462031082202A8FCF724
:404D8000C8FC102168460EF007F96068102108300EF002F960682B46083024331022694603F03AF87FBD10B504460821FFF7FDFA10212046FFF7F9FA207905281FD0062896
:404DC0001DD008281AD12189002005F083F9072020712046FEF7A2FF014620464030012913D00E21017000210176204600F0BCFF2046FFF76BFE2046FFF7C2FE10BD2089F2
:404E00000122002105F04AF9E1E70521EAE70000FFB581B01F4604460821FFF7C6FA10212046FFF7C2FA2079082803D0092804D0042203E00422012501E0092200252046EE
:404E400000F044FE264600204036307022712046FFF73CFE0398002D02D0012808D00BE001280AD120890022029905F017F904E02189029805F02EF9012700203076012FDE
:404E800004D0204600F070FF05B0F0BD02983073204602F0C3FC054605480121C28A2046FFF778FA002DEFD109202071ECE70000FC17002070B50C460546FEF72FFF012814
:404EC00009D108212846FFF770FA0023012221462846FFF79DFF70BD10B5044600F0F6FD2046FFF7F3FD00214034217010BD70B505461A24FEF712FF012809D10821284688
:404F0000FFF753FA0023012221462846FFF780FF70BD0000F8B50446002000900E4668460EF0A0F8002801D00D20F8BD8420005908212030009D00F02CFA2046042138303B
:404F400000F027FA002E02D1204600F0FBFD2946204602F0A4FB0E480821C28A2046FFF719FA204600F071FF25464035002808D0204600F023F8002801D009202870002040
:404F8000F8BD08202870204600F0DAFFF7E70000FC170020014610B540310A460978082906D0092907D00A2901D100F091F810BD0B20107010BD00F001F810BD70B50446F6
:404FC000007925464035052805D0062803D008280FD00C2070BD03220621204602F0F2FB0D480821C28A2046FFF7D4F91120287010E006202873204602F010FC0646AA8A0B
:405000000A20424301212046FFF7C4F9002E01D109202071002070BDFC17002038B504460020009068460EF01DF8002801D00D2038BD2046009D00F0C3F9082020712046BB
:4050400000F080FD2946204602F05CFB00213D2001550F2040210855204600F071FF002038BD00B5024600F031FD10214032117000BD10B50446FEF751FE012809D0402058
:40508000005D112805D100231A4606212046FFF7BFFE10BD10B5FFF786FE10BD38B504460021684600910DF0DDFF00280CD12046009902F0A8FB05480821C28A2046FFF7C1
:4050C00069F90D204034207038BD0000FC17002038B504460021684600910DF0C3FF002801D00D2038BD2046009902F081FB05480821C28A2046FFF74DF90C204034207083
:40510000002038BDFC17002000787047F8B5002569460D70002801D0002400E01F4C002C18D0204600F0DBFC002813D0207903280BD005280CD026464036B18AA07801F078
:40514000F7FDB078012806D01DE0042020711DE006202071F8BD0021204601F0B0FF274680373868002802D00DF0EAFF3D600020B0702079072802D12046FFF701FD022139
:40518000204600F0F7FE20790428E3D1207A694608703420FEF77EFBF8BD00006418002010B54C22115400F052F810BD10B50446FF21FFF7FAF809202071A07801F0DEFD03
:4051C00010BD000038B5FF216A461180002801D0002400E00B4C002C12D011460620FDF735FB684601882046FFF72FFD204600F087FC002804D104480068C16920468847E9
:4052000038BD0000641800205810002010B504468079002809D022214C200155FF212046FFF7C3F8204600F012F810BD10B5037902464032002B03D01173092B02D003E07D
:40524000002100E02221117300F001F810BDFEB504460089002700902781207926464036002817D0012815D002280AD112E002AA01A9204601F0F4FE002807D101980DF007
:4052800055FF204601F014FF0028F0D02046FEF789FBB776254680352868002802D00DF04FFF2F606868002802D00DF049FF6F60317B002919D0009800F064F8A0780021FF
:4052C00000F0DCFF2046FFF795FAA07801F08EF9A07800F037FDFF212046FFF766F80B20FFF706F800F068FCFEBD1F213173E2E7F8B517460E46054602F0BEFD04003CD011
:4053000020460C3001F0B2F82046062200211830FCF708FA2046062200211230FCF702FA1648224600683946436A28469847074626702846FEF7F2FC012148406070002DE2
:4053400010D02889608028464030C1782171002E0FD169796171018AE180418A2181808A608106E00648008BC005C00F2071002060803946204604F030FEF8BD3C10002001
:4053800000102E400A4610B50146002004F042FF10BD10B50DF0DCFB10BD000000B50146FFF702FA002801D0002000E00348002802D002898A4200D0002000BD64180020BF
:4053C00038B5044680346068002806D168460DF059FE002801D100986060606838BD000010B5014600F086FB0128887802D0FEF79FFC10BD90214843024940186030007F27
:4054000010BD00004418002070B5054604464035A87F012811D1A1789020084A484380186030067F3046FEF751FE002805D10220A877A078314601F093F970BD44180020C1
:4054400010B50C4CA07A002813D0FEF7EBFE0A48027F417F408B00F0B7FB012809D10020A07200F08FFF05498989090B01D000F03BFA10BD1419002044180020A0102E403B
:4054800070477047490510B5490F0B00FCF75AFB060704080C0C0F073E21FFF781FE10BD0821FFF7C3FE10BDFFF7D1FE10BDFFF7ADFE10BDF8B507460025002D01D00026E8
:4054C00000E0204E00F0FEFE3046403044890021418100F01BFF304600F001FB01282BD1A00702D52846FFF711FEE00602D52846FFF768FEA00601D5FEF794FE600601D594
:4055000000F014FB200602D5284600F01DF8600702D5284600F02CFA380402D52846FFF713FB780402D52846FFF700FBE00703D021463046FFF7A6FF6D1C2D062D0EBCD04E
:40554000F8BD000064180020F8B5002801D0002400E0284C002C4BD025464035A878012846D1FF278820493700593E46002805D02149897A890601D5878AC68A2046FEF77F
:40558000CDFB012834D002F07BFC2A8A6179FFF73BF9009001F048F900983346283081B23A46204602F0C0F9E98AA07801F016FB12480188688A124E002810D04843114937
:4055C000FCF766F80004000C01D0401C80B27080A07DC107C90F002001F04EFC01E000207080288A698A484381B2A07801F096FBF8BD000064180020FC17002060112E4092
:40560000161000207102000001490968096808475810002070B50D460026194A0146002801D0002401E014462034002C26D0204600F060FA01280AD1902048438018603081
:40564000007FFEF743FD002801D102F067F80D48006881692046884700280CD020464030817EA94202D3491B817600E086762089294604F070FD204600F062FC70BD000025
:40568000441800205810002070B503460088FFF785FE040013D000F022FA00280FD02079092819D02546997840352973204602F0B5F80646A878012803D0AA8A02E0022098
:4056C00070BDEA880A20424301212046FEF762FE002E01D109202071002070BD0EB5002217216B460292198100905A810120029B00990DF0C5FD0EBDF8B518480024807A05
:40570000002822D1164E0025B089000B22E0204600F03CFF1249A039401807882A462146384600F051FA012810D00E480122478305770A4944778A72002D01D0002000E073
:405740002030002801D000F0FBFBF8BDB089000B641CE4B20028DAD1F8BD000014190020A0102E404418002010B50088FFF716FE002809D0014640310C460978082905D093
:405780000B2903D00C2010BD022010BDFFF716FC002801D009202070002010BD70B503460088FFF7FBFD040008D0254640352878082805D00B2803D00C2070BD022070BD60
:4057C0008420005910220830991CFBF7A2FF2046FFF7C6FA2878082804D02046FFF778FC002801D00A202870204600F0A9FB002070BD000010B50C46002121700088FFF721
:40580000CDFD03000BD000F06AF9002807D00948F121807A0840C00603D4112010BD022010BD022020701A8A1889002104F00EFD002010BDFC170020F8B50F460021009154
:405840000088FFF7ABFD040012D000F048F900280ED0E079410641D4617E02264A07002A08DB8907402500291ADA2843E07135E00220F8BD02F000FB002101702189418027
:40588000A1898180217E4170E189C1803E7005460178134804F090F9284604F07BFC1DE0204600F02DF9012806D068460DF0DAFB002803D00720F8BD2A20F8BDE0790099DF
:4058C0002843E071204601F0D3FF607E0421304360760448C28A2046FEF75CFD0020F8BD1D040000FC1700203EB500220F236C460292238100910190628169460EC9002026
:405900000DF0BEFC3EBD0000F8B50F46054600F097FA040025D003202071254600264035EE76E6702046FFF7A1F901F043F90920FEF7DEFCA07800F047FE0121204600F09A
:4059400019FB2E706E70AE703A4600212046FFF7CFFC0649887B401C8873A078FFF754FEF8BD284601F00AFAF8BD00004418002010B5002801D0002000E0094800280DD04B
:40598000014640310A464978022901D100215170807DC107C90F002001F06EFA10BD00006418002070B503460D460088FFF7F6FC04000BD000F093F8002807D01248F121CA
:4059C000807A0840C00603D4112070BD022070BD20464030418A008A491C41430804C10C5888884201D2122070BD20822079072802D12046FFF7C4F8022028702089002179
:405A000004F04CFC002070BDFC170020016A491C016204D1817E491C4906490E81767047C169491CC16104D1C17E491C4906490EC1767047F0B5074687B003A8009005A81B
:405A400000260D460190002F01D0002400E01B4C002C05D06846FBF7C1FE002803D00BE0022007B0F0BD68460089C00704D1902200212046FBF756FE114829460068826879
:405A800020469047050016D1A77066762746267140373E70204600F019F8204601F004FB084820820848BE77807AF121084000D001202075E682E8B2D3E70000641800203B
:405AC00058100020B80B0000FC170020002101628176C161C17620300177417770470079002805D0012803D0022801D001207047002070474030807F002800D001207047C2
:405B000040300078002807D0012805D0052803D00E2801D0012070470020704710B5807801F042FA002800D0012010BD10B500F029FC03498989090B01D0FFF7D5FE10BD47
:405B4000A0102E4070B5054604464035A87F002825D1FF206075A0789021154A484380186030417F9023491CC9B24177A0785843104B8018DB896030994201D30021417797
:405B8000A0789021484380186030467F0677A1783046FEF79BFA002802D00120A87770BD0220A877A078314600F0DAFD70BD000044180020301900200020401C0006000E6E
:405BC000FBD0002070470000F0B515468207920F85B0000A02926A469080002D01D0002400E0564C002C28D0084600F0CFFC07466846808800280BD00298012843D002286F
:405C000041D003280BD03D20005D012879D08FE04B48381801882046FFF717F888E00020029002A80DF0FEF9002807D03D20005D012802D12046FFF7E9FE7CE06846029E81
:405C40008388324600213846FCF7F4FC3C48381801882046FEF7F9FF284600F0FFFA01AA21463046FEF7E6FD002806D030460DF049FA3D204C21085531E0F5773146204683
:405C800001F07AFB57E0002000902089039068460DF0B8F9002802D0002005B0F0BD6846009E8388321D00213846FCF7C3FC2448381801882046FEF7C8FF284600F0CEFAFF
:405CC0002046FFF70CFF002805D025464035287E002810D107E030460DF00AFA2BE02046FFF764FA27E001AA21463046029BFEF7D9FD002806D030460DF0FAF93D2028733B
:405D0000EDE712E00298FEF7AFFF0399317003990001090A0143717068468088B070000AF0703046FFF7DAFC05E02046FFF76EFE284600F093FA0120AFE7000064180020E1
:405D400000102E4010B5074A917B002901D0491E91730021FFF76EFE002801D0002010BD012010BD44180020F8B5074606464037B87F00282DD0B0789021009048432349D2
:405D800045186035287F0099FEF7B5F901281ED0287F401CC4B21E48C089A04200D800240020B877FF276F772F77A87702460146009800F051FE717DFF2903D0304601F01B
:405DC00034F9777501F0AAFC0025114F19E00320B877F8BD00200090224669463046FEF7F7FE0099002904D0FF231A463046FEF79AF9641CF889E4B2A04200D800246D1C33
:405E0000EDB2F889A842E5D8F8BD0000441800203019002010B502460021084B03E0002901D0002000E018460479944204D0491C0906090EF3D0002010BD00006418002047
:405E400000B50120FFF7E6FF00BD10B5044602F013F82189018080346168416061682831816004F051F910BDF7B50646087982B00C46092807D0A078F0770846FFF73AFE51
:405E8000012806D010E030460DF050F9022005B0F0BDA1789020294A484380186030007FFEF714F9012810D0A078FEF7D1FD01280BD037780121304601F0DCFB254620358C
:405EC000062F38D00B2F0FD107E06846027C21463046FEF7ADFE0D20D9E72046FDF71EFF012801D1002028772046FFF779FA054604AA21463046FEF70AFD01205F210855FE
:405F00006946097C002001910090A07833463A46294600F0CFFB69460A7CA0780323294600F072FFA0782946FDF71AFD30460DF0FDF80020ABE70120D5E700004418002069
:405F400010B502464032937F0021002B03D1927E002A00D00121064A927A002A00D000210279092A00D10121807800F0A5FF10BD1419002070B50C460546FDF7CFFE0028DB
:405F80000BD1012C06D92879092806D02846FFF7C5FD0446002C02D004E0012402E0A87DC007FAD1A87DC107C90F204600F064FF70BD0000012807D0082804D104480282C1
:405FC000034808300180704701488038FAE70000A0102E40014908817047000000102E4010B50446FF20F130012C01D1FF20D530002200F0A3FF044A108A044980B2A0436E
:406000000880108210BD000000102E401A100020034B198A034A89B2814311801982704700102E401A10002010B50446012802D0082C07D102E0FF20D53001E0FF20F1308C
:4060400000F074FF0348018A034A89B221431180018210BD00102E401A100020034B198A034A89B2014311801982704700102E401A10002070B5054604462035A87FF122A1
:40608000800012018018164A86183088400840003080002906D10121AB7FFF220903601D00F080FE89212046AB7F80224901113000F078FE83212046AB7F202249010B309B
:4060C00000F070FE43212046AB7F40228901173000F068FE208801210843308070BD000000102E40F8B505460120A84086B214460F46012231467C2000F020FF3A46314631
:40610000782000F01BFF6078267800020643E078A2780002024360792379000203430C2045430D2080010549281844182680001D44182280001D40180380F8BD00102E404E
:40614000401880B270470000CB065B0E0343480901021943D00108430121C902084301490881704780142E404278037812021343084A1382C37880781B02184390824878CB
:406180000B78000203431383C8788978000201439183704700142E40024A1080000C90801181704700142E40044A002180180288491C89B21029FAD37047000000102E407B
:4061C000024A10820148803081817047A0102E407047000010B5054A1082084600F0D2FE024A0021A03A8018018010BDA0102E4010B50B46044600F017F819462046FFF721
:40620000DFFF10BD002310B5F121064A090118468C182380091D401CC0B289B20828F7D310BD000000102E40024A10820148803001817047A0102E4010B504490882FF205D
:40624000002220211D3000F079FE10BDA0102E400149088070470000C0102E40000202494D3008807047000000102E400249888A0422904388827047C0112E4010B5084B60
:40628000074C0202A03B0029208202D075321A8010BD04490020088088807632F7E70000A0102E40201A2E40054B198807229202002801D0114300E09143198070470000B9
:4062C000001F2E4000B5034908884880FFF7A0FE00BD00001A10002010B50120FDF7F6FA01495020088010BD00102E4006490E220028888806D01043888003495120C03928
:40630000088070479043F7E7C0102E4000B502484088FFF7A3FE00BD1A10002010B5FCF787FB10BD014952200880704700102E40034908880122D2031043088070470000E4
:40634000001F2E40884201D8081A03E00022D243101A401880B2704700210170704700000748808806492039098B884201D8081A03E00022D243101A401880B27047000020
:4063800020112E400148008AC0B27047A0102E4070B5084C049D2082074804890548603006880E8001891180808818806007400F287070BDA0102E40E0112E40014800890E
:4063C00070470000C0102E4000280FD00D4A108B0870000A4870908B8870000AC8700948203000880871000A48717047064A10880870000A487090888870000AC8701089F7
:40640000F0E7000040102E40C0112E4000B5024A00F004F800BD0000FF7F000000B51346FFF790FF984201D8022800D2002000BD0148008A70470000001A2E40024908825A
:406440000248008970470000A0102E40001A2E40014880887047000020102E40024908820148803000887047A0102E40064B1A8999891B8A0270120A42708170090AC170EB
:406480000371190A4171704760102E40012904D00549098BC90B017070470349403109898907C90FF7E7000000102E40024908820248008970470000A0102E40201A2E40EA
:4064C000FFB581B00024FF232B4D0B9E002805D0022803D003283CD006281CD12C8B2F46A004850E2007000F012802D0252D1AD916E00C2D14D106230021F820FCF79AF830
:4065000006230021F820029AFCF794F8002E01D0388B1CE0002304980480184605B0F0BDFFF706FFF9E706230021F820FCF782F8062DEFD30A98002806D0AD1F0246ABB26D
:406540000021F820FCF776F8388B002EE2D03080E0E72C8BA004800E0C28E1D106230021F820FCF767F806230021F820029AFCF761F8288BCEE70000E0102E400248008802
:406580004005C00F70470000001F2E40014840897047000030190020024908820248808970470000A0102E40001A2E40044A10820448028980894843101880B27047000070
:4065C000A0102E40301900209021074B414300B5C918FF2260314A770A7700228A77114600F03AFA00BD00004418002090225043074A10B58018FF21603041770177002138
:4066000081770448418EFF201D3000F08FFC10BD44180020FC17002000B5044A1082034880308088022200F003F800BDA0102E4010B50023884201D8081A03E00024E44387
:40664000201A4018044980B2884201D8824200D90123184610BD0000FF7F0000024880880006C00F70470000C0102E4002488089C007C00F70470000201A2E4070B55478A7
:40668000157824022543D47888232602947834435679127936023243002900D09823044908820348A038181805808480028170BDA0102E40FFB581B014460D4607460A9E5A
:4066C0000B9BFFF773FF002E0AD0009333460021049AFCF73FF805484019C45505B0F0BD0021049AFCF71CF8F5E700001E10002070B502460448054D808808242C800B4642
:406700000021FCF70DF870BD30190020A0142E4010B5212402466401044953200880102300212046FBF7FCFF10BD000000102E40417802780902044B0A431A83C1788078EF
:40674000090208439883704760142E40034A1082802001430148803001817047A0102E40054A1082044A6032908B0009000108439115084390837047A0102E4030B50021EC
:406780000F4B0A46012809D0032802D005280AD107E04021198102210A2204E004210C2201E004210D221882054C20342088C0B205460D42FAD022800021198230BD000083
:4067C00080142E4010B5044607480482074801808280032189030820FFF726FC200202497530A039088010BDA0102E40201A2E40054A1082044A60321183000202494B30CE
:40680000A039088070470000A0102E40054A491E1082044A60321183000202494C30A03908807047A0102E400349884200D908460249088070470000FF0F000060112E40B3
:406840000349884200D908460249888070470000FF0F000060112E408823002900D09823084908820748A038191808881070000A507088889070000AD07008891071000A02
:4068800050717047A0102E4010B51446024606480B46C0880021FBF729FF012C02D103495420088010BD00003019002000102E40064A11880170090A417091888170090A82
:4068C000C1700349542008807047000080142E4000102E403E21095CF1238A001B01D218082903D202490088511808807047000000102E400121814010B589B200227C20E0
:4069000000F01CFB10BD0000FEB5FF210120FFF767FBFF210820FFF763FB3020FFF778FB3F48802101803F483F4D00784007400F02286FD001286BD1002028800022114609
:406940000320FBF783FF394E3949B08D8882384F002420373248A0300482308F38822046FFF744FE641C2406240EF3D0B08F38832E48103000F052F9716930690191009028
:4069800069464879C021084369464871684600F06DF900F055F82548214C40304188A03421838188A1831E49C088C0318880708E38802048002606823920FFF74FFB184F66
:4069C000532038801C490720088354203880E020FFF7EAFBE820FFF7E7FBF020FFF7E4FB0020FDF707FF13488682282101838015A0810F48403086815B20388009480078BF
:406A00004007400F022807D0012801D10B482880FEBDFFE7032090E70848C01CF7E7000000102E4030190020001F2E40FC170020C0112E40001A2E4080142E40E023000011
:406A4000044800218183018302497420603908807047000060102E40074B1882064B6033988B00090001084399158843002A01D11021484098837047A0102E40F3B50D224F
:406A800084B0920100924A780B78120213430393CA788B78120213434A790979FF20120211431A4A8C46918B9E460291118B01911649742260390A80154900220F7821E0A6
:406AC0000121124B9140009C603BE3181D8889B21C881B88039E6E407546654064462E435C4026430CD1029B194209D00199D140CB070499DB0F8B4202D1104606B0F0BD13
:406B0000521CD2B29742DBD8F8E7000060102E403C18002030B50949FF208C8B084A00210125137805E02A468A40224204D0491CC9B28B42F7D830BD084630BD60102E403C
:406B40003C18002010B50446E020FFF72DFB20782246401CC3B20021E020FBF787FD10BD42790021012A02D901214171090342790A430179042914D049001143827B032A23
:406B800001D8D2001143427B52010A43817909021143012252031143054A118300889083704711460122920211430222E5E7000000102E4000B50120FFF72AFA01494120B4
:406BC000088000BD00102E4000B50120FFF746FA01494020088000BD00102E40024A10820148603081817047A0102E4010B5044C208204488180028183815143018210BD5C
:406C0000A0102E40A0132E40034B1882024820388180028070470000A0102E404178027809020A4306490A80C2788378120213438B8042790079120210430881704700004A
:406C4000C0112E404178027809020A4306490A81C2788378120213438B81427900791202104308827047000060102E40417802780902084B0A431A83C178827809020A4305
:406C80009A8341790079090208430249203108807047000040102E404178027809020A4306498A80C2788378120213430B814279007912021043888170470000001F2E409E
:406CC000F0B5F12600213601FF240C4D01348A00921953191A88D7070AD0520852001A80884201D1224300E0A24301273A431A80491CC9B20829EAD3F0BD000000102E4090
:406D000010B50446E820FFF74FFA20782246401CC3B20021E820FBF7A9FC10BD024A10820248818370470000A0102E40001A2E40024A10820148603081807047A0102E4089
:406D400010B5044688000521FAF7B8FB04490C8204498880200202497230A039088010BDA0102E40001A2E4003490882000202497330A03908807047A0102E4003490882CD
:406D8000000202497030A03908807047A0102E4003490882000202497130A03908807047A0102E40F0B515460F4604461E46FF2A04D000222946184600F08CF860782378E0
:406DC00000020343E078A1780002014360792279000202430C207043C0190A4C80B207193B80001D80B203191980001D80B200190280FF2D04D001222946304600F06AF876
:406E0000F0BD000000102E40F8B505461C4617460E46084600F0B6F8054AB90021431582034AA03A80180180024880194455F8BDA0102E4023100020034A118B8905890D3E
:406E40008002084310837047A0102E403E21095CF122890012018918064A89180A88D30706D0520852000A8000880122104308807047000000102E4030B50E4C238A012593
:406E80001A46012804D0022804D000290BD00CE02A430AE0002908D12A4322825008400020821A4601E05A0852009A4200D0228230BD0000001A2E40054A1082044A603268
:406EC000908B4023984389010143918370470000A0102E40F12380001B01C018044BC3181888002A01D0084300E088431880704700102E40044A118A0223002801D019430F
:406F000000E0994311827047001A2E4000B5064A1082054860300181002901D0012000E00020FFF7E7FF00BDA0102E40024A801802880A430280704700102E4070B5084B11
:406F4000C5182C880023080003D104E040085B1C9BB2C607FAD08C439A4022432A8070BD00102E40024A1018405C8007800F704723100020024908820148803080897047D9
:406F8000A0102E408000FF3041307047044B02461B8AFF208B4202D902484018805C7047301900201E100020024908820148803000897047A0102E40174902460B68002086
:406FC000002B08D10A605207520F012A04D0022A10D0086012207047112292018A80CA80032252020A810122D2024A8140228A8105220DE0092252028A80CA800122520361
:407000000A810322D2024A81012252028A810422CA810A8270470000301900200A4600B501461046FFF7B2FF00BD38B50C4605460021684600910CF015F8002804D10099D3
:4070400028464C7000F006FC38BD10B5044680780021FFF7C3FD01212046FEF78BFF10BD436E002B0CD00B60014660318B781370826E4266CA788A700021816608467047EB
:40708000FF20704710B50346446E6033002C04D0846E002C04D0FF2010BD41669A7001E08166DA70002010BD0021416681667047406E002801D000207047FF20704770B53A
:4070C0000446C0790D46810610D5DF210840E07100F0D2FE0570218941804034218A8180618AC180A18A018102F04AFF70BD000010B50446FEF7FEFC01280AD1A1789020E9
:40710000054A484380186030007FFCF7DFFF012801D000F003FB10BD44180020F8B50E460446FCF7FBFD01282BD02079042801D0072825D1F079B77900020743A07839463B
:40714000FFF76AFA25464035012820D03A46711C204600F090FA02212046FDF7C2FCA07DC107C90F0220FFF787FE688A002807D0E87E002804D1032109020820FEF754FF47
:40718000F8BD01222421204600F01CFBF8BD282028732046FEF70AF8F8BD70B50D460646FDF734FC002852D120213046FDF7FDF83446687840346073E87820220002E08122
:4071C000A9780843E0816879010228790843218A814203D0F1791143F1712082E8790102A8790843618A814203D0F1791143F1716082687A0102287A0843A18AE18081427B
:4072000003D0F1791143F171A082A08A218A8000FAF754F9401E618A80B2814200D9608201213046FDF760FCE87AA97A000201430022304600F036FB608A002807D0E07EFA
