:400000000040002011000000190800001908000010B500F009FCC04670B51222314B1A6001F08EF8304801F043FD012001F0A8F8302000F0A7FF2D4A2D4B1A602D4C8025BF
:40004000ED0525602C4A116802230B4313602B4A2B4B1A6000222B4B1A602B4A136808218B431360FA20C00001F036F8274801F029F8274A274B1A60274B284A1A60A0216D
:40008000C900274A1160274A1A602749274A1160274A1A60BC218901264A1160264A1A6080221206254B1A608022D202244B1A604323244A13604021234A1160234A1360D2
:4000C000013B234A1360234A13604122224B1A602249082000F0A6FF082000F08DFF256070BDC04630001040001BB7000600008004010B400C020B4078002E402D3E000064
:400100007C002E4064F02E406CF02E40DC05000000E3AF000C0301400000014043FF00800003014040FF0080005F09000803014042FF00800403014041FF008008010B40AF
:4001400000010B4038010140300101402801014024010140200101401C0101409912000070B572B60022434B1A600132424B1A7000240FE041486200131959000B00411864
:4001800089881A5AC31858880004104300F03AFB0134E4B2032CEDD9002414E0374EA20011194B00F318198B588B000408439D8BD98B0904294313195A00B218128C00F04B
:4001C00027FB0134E4B2012CE8D92C492C312C48703000F0EDFA2B4A2B4B1A6003222B4B1A602B4A2B4B1A6099231B042A4A1360B1210905294A1160294A1360294A136036
:40020000A821C903284A1160284A1360284A294B1A60294A294B1A600623294A1360294A136029490B783C22934314221343DBB20B70264A117816230B43DBB21370342208
:40024000234B1A60234A244B1A60244A244B1A600122244B1A60B632FF32234B1A60F53A224B1A60224A234B1A60FFF7D5FE00F0B9FA70BD6CF02E401C700F40B44501003A
:4002800034470100000333EE0000024000020240030000380003024000500F4008500F4010500F4020500F4028500F4030500F40000003C038500F401222020020012040FD
:4002C0002000104000800F4001700F4000700F40000004408961DB00080004403100200008010440000204400802044000030440B601D8000803044010B5064C2378002BB7
:4003000007D1054B002B02D0044800E000BF0123237010BDB010002000000000A0450100084B10B5002B03D00749084800E000BF07480368002B00D110BD064B002BFBD044
:400340009847F9E700000000B4100020A0450100A00B00200000000010B5022001F072F801F032F800B2064C208002F04BFA0022044B01F031FF02F087FA606010BDC04659
:40038000CC10002000004D40F0B585B0104B1B78022B1AD101AC103323810E4D2B00083301930127A7800C4E00233200002120000FF00AFD1523238109350195A7800023AC
:4003C0003200002120000FF0FFFC05B0F0BDC0466A220020CC1000207022002070B50C00632900DD64242300633301DA64246442002C01DB002500E00125002802D0012894
:400400000ED01AE0E8B200F099FF68426841C0B200F0A0FF200000F061FA094B1C720CE0E8B200F0A3FF68426841C0B200F0AAFF200000F0C3FA024B5C72FFF7A5FF70BDFC
:40044000CC100020014B98727047C046CC10002010B50C0028280CD004D8012809D027280FD034E04C2811D04E280FD041282ED107E0002000F078FB01F00AFB01F02AF8CF
:4004800025E0FFF781FF01F0A1FA20E0A389122B05D16368002159560020FFF79FFFA389152B05D16368002159560120FFF796FFA389182B04D1636800201856FFF7C2FFCA
:4004C000034A13785078000218430EF055FA10BD7022002010B58020400001F0DBF8012000F0D8FD8020800001F0D4F8012000F0D1FDC020800001F0CDF8012000F0CAFD3A
:400500008020C00001F0C6F8012000F0C3FDA020C00001F0BFF8012000F0BCFDC020C00001F0B8F8012000F0B5FDE020C00001F0B1F8012000F0AEFD8020000101F0AAF89B
:40054000012000F0A7FD10BD10B50400037880204000184301F09EF8012000F09BFD637880208000184301F095F8012000F092FDA378C0208000184301F08CF8012000F07A
:4005800089FDE3788020C000184301F083F8012000F080FD2379A020C000184301F07AF8012000F077FD6379C020C000184301F071F8012000F06EFDA379E020C000184362
:4005C00001F068F8012000F065FDE37980200001184301F05FF8012000F05CFD10BDC04610B501F033F9104801F054F8012000F051FD0E4801F04EF8012000F04BFD9020EE
:40060000000101F047F8012000F044FD084801F041F8012000F03EFDF020000101F03AF8012000F037FD10BD010C0000070B00000B0A000010B5041E11D1002000F07EFEA2
:40064000012000F087FE002000F090FE012000F099FE322000F042F9322000F0AFF9012C11D1002000F06AFE012000F073FE012000F07CFE002000F085FE322000F02EF9A7
:40068000322000F09BF910BD10B562B6434800F007FF00F0C7FE00F071F900F0DFF900210020FFF79BFE00210120FFF797FEFFF797FF3B4800F000FA01F076F9394BD8729E
:4006C0009B7A5BB2002B5AD000F072FFFFF702FF3548FFF739FF012000F0F0FE0A2000F0F1FC002000F0EAFE2E4BDB7A5BB2002B36DD002000F0F2F8002000F05FF9FA20ED
:40070000800000F0C7FC012000F018FE002000F021FE012000F02AFE002000F033FE1E2000F0DCF81E2000F049F9FA246400200000F0B0FC002000F001FE012000F00AFEDE
:40074000012000F013FE002000F01CFE232000F0C5F8232000F032F9200000F09BFC16E0104B5868114901F05FFC002803D00120FFF760FF0BE00020FFF75CFF07E000F0DD
:40078000A9FEFFF7A7FE08480830FFF7DDFE02F0A9F9032002F09EF98EE7C0465903000051040000CC100020A445010000007041F0B50025002711E0BB00C658F3B2FF221A
:4007C000964308E06A008A181478A419527822700135013BDBB2002BF4D10137092FEBD9F0BDC0460323044A1360044A13600022034B1A607047C046300030403000314021
:40080000000E3F4010B50A00002102F02BF910BD10B502F01EF910BD10B502F0DFF803680C2B00D1FEE7FEE770B50F4E0F4D13E029686B68AC68002202E001C901C30432E1
:40084000A242FAD1E868002202E0002102C304328242FAD11035013E002EE9D102F0C4F8FFF712FFFEE7C04601000000004C010010B50E4A136801218B43136000230AE068
:40088000032B03D89A000A49505800E009489900094A885001332F2BF2D9FFF761FC034A116801230B43136010BDC046000010400000000019080000000000200004000CDA
:4008C000014B18607047C046880120400004000C014B18607047C046940120400004000C014B18607047C0468C01204070B504000D0001F0E6F8AC40024B1C6001F0E5F802
:4009000070BDC0460800204010B501F0DAF8064A116804230B43136001F0D7F818210420FFF7E4FF10BDC04600002040014B18607047C046B801204010B50D4C8023DB0480
:400940002360236823600020FFF7B8FF236823600C22084B1A600120FFF7E8FF3122064B1A606420FFF7B2FF3220FFF7B7FF10BD80012040A4012040A801204010B5064BF9
:400980001B78002B04D1FFF7D7FF0122024B1A70FFF7BAFF10BDC046D81000200004000C014B18607047C046480120400004000C014B18607047C046540120400004000CC4
:4009C000014B18607047C0464C01204070B504000D0001F076F8AC40024B1C6001F075F870BDC0460800204010B501F06AF8064A116802230B43136001F067F81821022014
:400A0000FFF7E4FF10BDC04600002040014B18607047C0467801204010B50D4C8023DB042360236823600020FFF7B8FF236823600C22084B1A600120FFF7E8FF3122064BA7
:400A40001A606420FFF7B2FF3220FFF7B7FF10BD40012040640120406801204010B5064B1B78002B04D1FFF7D7FF0122024B1A70FFF7BAFF10BDC046D910002010B500F028
:400A80007FFA10BD10B50024064B1C70064B1C70064B1C70FFF7F2FF054B1C70054B1C7010BDC046732200206C220020722200205C2200206422002010B590B00400142264
:400AC00020490BA801F0C5FF20231F4AD35C002B05D1FFF7D7FF012120231B4AD154002C2DD01A4B1C6008A805AA426006AB0893002101811B3119805980173919710023D9
:400B000013701231694402F0C9F8002818D1104B0293104B0193052300930BABAE2212010D490E4802F010F8002809D101220C4B1A7009321C210B480FF02EF900E00120AD
:400B400010B010BDCC480100DC100020602200207902000080540100C0000020C50C00006A220020E048010010B502282FD81C4B1B78042B2DD11B4B1B785B072CD40028AF
:400B800009D1194B00221A862032596A0A805B6A10325A800CE001280AD1134B96221A86C822D200596A0A805B6A8022D2015A800E4B18700C4820300CF0FCFC00280DD173
:400BC000084A117804230B43DBB2137006E0012004E00420FF3001E00420FF3010BDC0466A22002073220020A40B0020722200207047C04603784078000218437047C04662
:400C000070B5050083890F2B1FD1043031332A0000210FF0D9F8041E11D16868FFF7EAFF830706D50A4B1B68290082204000984705E0074B1B6829000620FF309847054A61
:400C4000137801218B43137000E00024200070BD6022002073220020024B00225A701A707047C0467022002010B582B00400FFF7C7FF0A4B1B78DB070ED4002809D001A98E
:400C800012238B70A3890B80C87020680DF0FCFD02E020680DF070FE02B010BD732200208379002B07D000200BE0C25C002A07D10133DBB200E00023052BF6D9002000E0A2
:400CC00001207047F0B583B004000D009A4A117801230B43DBB21370272800D1C1E012D8062800D185E004D8012821D005287CD010E1242800D1B0E0262800D1B9E0212827
:400D000000D007E189E0422800D1EFE006D8282800D1AAE0412800D1D3E0FBE04C2800D1EFE0FA2800D1F0E0432800D0F2E0E0E001AE0727377000237370300003F024FFC3
:400D4000377001237370300003F01EFF01F0BEFE7A4B1E683000FFF7A3FF00280CD0300001F0C4FE754E00213068FFF741FF30680121FFF73DFF2AE0714B1F78714B187897
:400D80008001FC263601020032403F21394011436D4B1B781B03F8225202134019436B4B1B785B04FE22120413400B43684E33701A0A72701B0CB370300001F097FE002133
:400DC0003000FFF715FF01213000FFF711FF00200CF082FA01A83F230370002343700CF099FA04225B4B1A7094E02A785A4B1A7090E02B78002B00D08CE06B78002B06D1EC
:400E0000564B0022DA809A80554A1A606B604A4A137801218B4313707CE0474B1B789B0678D4504B1B78102B02D105224D4BDA704D4B18784B490CF07BFB01AB18800028B8
:400E400004D04A4B1B6801A9362098473A4A117801230B43DBB213705CE06A78444B1A7058E002223B4B1A7054E00422394B1A7050E0384B1B78022B4CD02F4A1278D207A2
:400E800048D52D4A1278520708D50322314B1A70294A137804218B4313703BE0264A1278120708D504222B4B1A70234A137808218B4313702EE0032B2CD10422254B1A7043
:400EC00028E0294E02222900300001F0C2FD0022214B1A7031783D31FF314900254B591801310232244801F0B4FD13E0FFF7B4FE10E06988162900D9172128880DF0CEFC06
:400F000008E02800FFF7B0FE04E01C4A117801230B431370084B1A7811231A4209D0064A137801218B431370104B1B6829002000984703B0F0BDC04673220020D80B002075
:400F40007CF1FF0F7DF1FF0F7BF1FF0F78F1FF0FDC0B00206A2200206C22002000110020A00B0020D00C002070220020602200206422002080540100682200205C22002019
:400F80007047C04610B586B0040000F09AFD0E4B1B6800930D4B1B680193033C0C4B1B5D02930C4B1B68039304AA0B4B04936B4605930A4B1A600A490A4A11601B6800F0BF
:400FC00084FD06B010BDC04608010B4000010B40684B010030001040B6EA0000080010401700008004001040024B1B68012018407047C0460C002E401F2318401E3B8340FA
:40100000014A13607047C04600E100E01F2318401E3B8340014A13607047C04680E100E001BE704770B504000D001F2802D90020FFF7F6FF1034A40080239B059C46644474
:401040002068256070BDC04670B504000E00032902D90020FFF7E4FF1F2C02D90020FFF7DFFF03252540ED00063500F02AFDA408A400074B9C46644421680323AB40994371
:401080000B003100A9401943216000F01EFD70BD00E400E010B5040006E0084B586800F007FD074B9C46644480231B029C42F4D8024B9868604300F0FBFC10BDD80C00208E
:4010C0000080FFFF10B5034B1B7B584300F0F0FC10BDC046D80C002010B504000F4A116801230B4313600E4A0E4B1A600E4A1368802109020B431360002809D100200CE082
:401100000120FFF7DFFFFFF76FFF002804D1013C002CF5D1102000E0002010BD60F02E400220000078002E4010002E40034B1868C0231B02184000D00120704700010B40CF
:4011400010B50D4B1A6801218A431A601A68022082431A60094A10683024A043203C204310601068093CA043014311601A68802109060A431A6010BD00F02E4000FF2E406D
:4011800070B51D4B1B6801241C40002802D0012816D02BE0184B19680122914319601968022081431960154B19682E3081432038014319601968093881430A431A6018E0F9
:4011C0000D4B1A6802218A431A600C4A10680725A84301431160116830208143103801431160196801220A431A6002E00020FFF717FF200070BDC04600F02E4000FF2E40F0
:4012000010B500F05EFC044A1368C02109020B43136000F05AFC10BD00010B4010B500F050FC08490A68084B1A408024E40122430A600A6813408022120213430B6000F0D5
:4012400044FC10BD00010B40FF3FFFFF70B5050000F037FC0400FFF769FF002803D0FFF7DDFF012100E0002108482840084A1568084B2B40184310601368012901D1FFF7BD
:40128000BFFF200000F021FC70BDC0460404040010020B40FBFBFBFF10B5244B1B685B0715D5234B5B685B070ED5224B596A042001401F4C62688A4362605A6A82435A62A0
:4012C0009B69002B00D098470420FFF7BFFF174B1B685B0518D5164B5B685B0510D5154B596A8022D2001140114842688A434260596A114A0A405A62DB69002B00D0984701
:401300008020C000FFF7A2FF084B1B685B030CD5074B5B685B0304D5064B1B6A002B00D098478020C002FFF791FF10BD10020B40EC0C002008110020FFFBFFFF04490A688B
:40134000D2B202239A43400018401043086070470002044004490A68D2B202239A43400018401043086070470003044004490A68D2B204239A438000184010430860704770
:401380000002044004490A68D2B204239A43800018401043086070470003044010B500F090FB044A116801230B43136000F08DFB10BDC046000020400004000C014B1860A4
:4013C0007047C04608012040024B18680004000C7047C046080120400004000C014B18607047C04614012040014B18607047C0463801204010B581229204074B1A604D226B
:40140000064B1A600220FFF7EFFF0548FFF7E4FF0020FFF7D1FF10BD0001204024012040FFFF000010B5064B1B78002B04D1FFF7E1FF0122024B1A70FFF7B0FF10BDC0462D
:4014400030110020014B18607047C046300120408423014AD05070470000002010B5040000F02FFB044A1168044B0B40A4031C43146000F02AFB10BD10E400E0FF3FFFFF60
:4014800080229202014B1A607047C04600E100E080229202014B1A607047C04680E100E010B50400FFF7F4FF2000FFF7D1FF0320FFF7D4FFFFF7E4FF10BDC04604490A68C9
:4014C000D2B202239A43400018401043086070470001044010B500F0F4FA044A136808218B43136000F0F1FA10BDC046000020400004000C014B18607047C046C801204079
:401500000004000C014B18607047C046D40120400004000C014B18607047C046CC01204070B504000D0000F0CCFAAC40024B1C6000F0CBFA70BDC0460800204010B500F081
:40154000C0FA064A116808230B43136000F0BDFA18210820FFF7E4FF10BDC04600002040014B18607047C046F801204010B50D4C8023DB042360236823600020FFF7B8FF10
:40158000236823600C22084B1A600120FFF7E8FF3122064B1A60FF20FFF7B2FF7F20FFF7B7FF10BDC0012040E4012040E801204010B5064B1B78002B04D1FFF7D7FF0122E1
:4015C000024B1A70FFF7BAFF10BDC0463111002010B50220FFF710FD10BDC04610B50120FFF70AFD10BDC04610B500F06AFA0C4A117820230B43DBB213700A490A7810231C
:401600001A43D2B20A70084A11780B43DBB2137000F05BFAFFF7DCFFFFF7E0FF10BDC04692000F4093000F4090000F4010B50220FFF7ECFC10BDC04610B50120FFF7E6FC60
:4016400010BDC04610B5FFF7F1FF064B1978064A147809231C400C4300231370FFF7B8FF200010BD63000F409822002010B5FFF7E3FF064B1978064A147840231C400C4322
:4016800000231370FFF7AAFF200010BD60000F40B122002010B504002B4B1B78DBB2002B02D0013BDBB200E00F23284A1278D2B29342F1D0FFF7BAFF254B187825490B7869
:4016C0000922134003430B701F4B1A78D2B21F4B1B78DBB29A4205D10B785B0702D51E4B1C802DE0194A13780133DBB213701378DBB20F2B02D90022144B1A70134B1A78C7
:40170000D2B2114B1B78DBB29A420ED10E4A13780133DBB213701378DBB20F2B02D90022094B1A7001220D4B1A70084B1B785B000B4A9C520B4A117804230B43DBB21370AE
:40174000FFF746FF10BDC046AD220020AF22002063000F409822002084100F40AC2200207822002083000F4010B501E00E4B1B880E4B1B789B06F9D400F0A3F90C490A7833
:40178000012401231A43D2B20A700A78A2430A70084A11780B43DBB213701378A343137000F093F910BDC046A4100F4060000F4092000F4093000F4010B51F22184B1A70C0
:4017C0000220FFF723FC03210220FFF73DFC15490220FFF727FC0120FFF718FC03210120FFF732FC10490120FFF71CFCFFF7BCFF00240E4B1C700E4B1C700E4B1C700E4BAB
:401800001C700E4B1C700E4B1C70FFF71BFFFFF72DFF0C4B1C7020220B4B1A7010BDC04682000F406D1800000919000074220020B0220020AE220020AC220020AD2200205B
:40184000AF22002083000F4080000F4010B5064B1B78002B04D1FFF7AFFF0122024B1A70FFF7C2FE10BDC0463211002026E01E4B18781E490B780922134003430B700B78F8
:401880005B0723D51A4B1B78002B0CD1194A13780133DBB213701378DBB20F2B06D90022144B1A7002E00022114B1A70114B1B785B00114A9B5A9BB2104A13800D4B1A78B8
:4018C000D2B20F4B1B78DBB29A42D0D1094B1A78D2B20B4B1B78DBB29A4204D1094A137804218B431370704763000F4098220020AC220020AD2200207822002084100F40CB
:40190000AF22002083000F40204B187820490B784022134003430B7032E01E4B1A8892B21D490B780133DBB20B700B78DBB2072B02D90021184B1970174B1978C9B2174B07
:401940001B78DBB299420ED114490B780133DBB20B700B78DBB2072B02D900210F4B197001210F4B19700C4B1B785B000D495A52064B187806490B784022134003430B70DB
:40198000034B1B789B06C8D47047C04660000F40B1220020A4100F40AE220020B0220020742200209C220020024B1B68012018407047C04604000440034A117880235B42CD
:4019C0000B43DBB21370704771000F40024A11787F230B401370704771000F40014B18707047C04601000F40014B18707047C04641000F40014B18707047C04621000F4053
:401A0000014B18707047C04681000F40014B1878C0B2704761000F40014B1878C0B2704751000F4010B501E0FFF7F6FFFFF7EEFFC306F9D410BDC04610B513490B783F2209
:401A4000934309221343DBB20B70104C227801231343DBB22370FF20FFF7C0FFFF20FFF7C3FF7F20FFF7C6FF0020FFF7C9FF00F028F8227810231343DBB2237000F025F834
:401A8000FFF7D0FF10BDC04671000F4091000F4010B5064B1B78002B04D1FFF7CDFF0122024B1A70FFF788FF10BDC046331100200230800803D00138FDD1C046C046C0462F
:401AC0007047EFF3108072B6704780F3108870470160704701607047324B1A781202324B1B781A43314B1B781B02314909780B4330498B4201D1072A06D0D42109018B42FC
:401B000006D1042A04D102E02B4B042200E02A4B2A490B602A4B1A602A4B1B781B022A4A1278134380229201934202D0002B02D002E0264B00E0254B254A1360254B1B7851
:401B40001B02254A12781343244A934205D0244A934204D0052B05D103E0224B02E0214B00E0204B204A1360204B1B681B09204A1268AA2A15D1012B13D9164B1B780E2B09
:401B80000FD11C4B1B781B021B4A127813431B4A13601B4B1B781B021A4A127813431A4A13607047D9F0FF0FD8F0FF0FDFF0FF0FDEF0FF0F580B0000580D00006C002E4021
:401BC00074002E40DBF0FF0FDAF0FF0F0220000078002E40DDF0FF0FDCF0FF0F0F0F000005050000050F000080002E40EC0F00F0E00F00F06DF2FF0F6CF2FF0F84002E40D6
:401C00006FF2FF0F6EF2FF0F94002E4010B5FFF759FA10BD10B5FFF73DFA10BD10B500F04BF810BD10B500F04FF810BD10B500F04BF8034800F02AF8032000F02DF810BD43
:401C4000111D000010B5024800F046F810BDC046111D00000220FF307047C0462B2070472B2070472B2070472B2070472B2070472B2070472B2070472B2070472B207047D8
:401C80002B2070472B2070477047C046014B18677047C0460000002010B50400FFF711FF044A1368C0218B43A4011C431460FFF70CFF10BD0CE400E080225201014B1A60A3
:401CC0007047C04600E100E080225201014B1A607047C04680E100E010B50400FFF7F4FF2000FFF7D3FF0320FFF7D6FFFFF7E4FF10BDC04610B5FFF7E4FE044A13680421EE
:401D00008B43136030BFFFF7E0FE10BD10ED00E010B512F031FC10BD002243088B4274D303098B425FD3030A8B4244D3030B8B4228D3030C8B420DD3FF22090212BA030C1E
:401D40008B4202D31212090265D0030B8B4219D300E0090AC30B8B4201D3CB03C01A5241830B8B4201D38B03C01A5241430B8B4201D34B03C01A5241030B8B4201D30B0368
:401D8000C01A5241C30A8B4201D3CB02C01A5241830A8B4201D38B02C01A5241430A8B4201D34B02C01A5241030A8B4201D30B02C01A5241CDD2C3098B4201D3CB01C01A64
:401DC000524183098B4201D38B01C01A524143098B4201D34B01C01A524103098B4201D30B01C01A5241C3088B4201D3CB00C01A524183088B4201D38B00C01A524143084B
:401E00008B4201D34B00C01A5241411A00D20146524110467047FFE701B5002000F0F0F802BDC0460029F7D076E7704703460B437FD4002243088B4274D303098B425FD362
:401E4000030A8B4244D3030B8B4228D3030C8B420DD3FF22090212BA030C8B4202D31212090265D0030B8B4219D300E0090AC30B8B4201D3CB03C01A5241830B8B4201D33F
:401E80008B03C01A5241430B8B4201D34B03C01A5241030B8B4201D30B03C01A5241C30A8B4201D3CB02C01A5241830A8B4201D38B02C01A5241430A8B4201D34B02C01A6E
:401EC0005241030A8B4201D30B02C01A5241CDD2C3098B4201D3CB01C01A524183098B4201D38B01C01A524143098B4201D34B01C01A524103098B4201D30B01C01A5241F0
:401F0000C3088B4201D3CB00C01A524183088B4201D38B00C01A524143088B4201D34B00C01A5241411A00D201465241104670475DE0CA0F00D04942031000D340425340B5
:401F400000229C4603098B422DD3030A8B4212D3FC22890112BA030A8B420CD3890192118B4208D3890192118B4204D389013AD0921100E08909C3098B4201D3CB01C01A36
:401F8000524183098B4201D38B01C01A524143098B4201D34B01C01A524103098B4201D30B01C01A5241C3088B4201D3CB00C01A524183088B4201D38B00C01A5241D9D229
:401FC00043088B4201D34B00C01A5241411A00D20146634652415B10104601D34042002B00D54942704763465B1000D3404201B5002000F005F802BD0029F8D016E77047A4
:402000007047C0468446081C6146FFE71FB500F09FF8002801D40021C8421FBD10B500F02BF84042013010BD10B500F091F8002801DB002010BD012010BDC04610B500F0D9
:4020400087F8002801DD002010BD012010BDC04610B500F039F8002801DC002010BD012010BDC04610B500F02FF8002801DA002010BD012010BDC046430270B542004C0076
:402080005D0AC30F4802120E460A240EC90FFF2A0FD0FF2C11D00120A24200D070BDB542FCD18B420DD0002AF8D12800431E9841F4E70120002DF1D1EBE70120002EEDD180
:4020C000E9E70020EAE7C0464302F0B542005D0AC30F4802440A4800120E000EC90FFF2A1FD0FF2822D0002A09D16E426E4100280FD1002C0DD10020002D09D005E00028F5
:4021000001D1002C01D08B4213D0584201231843F0BD002EF7D048424141012049420843F6E7002DDDD002204042F1E7002CDAD0F9E78242E9DC04DBA542E6D80020A54265
:40214000E6D25842434101205B421843E0E7C0464302F0B542004C005E0AC30F4802120E450A240EC90FFF2A17D0FF2C19D0002A0BD170427041002C17D0002807D0484205
:402180004141012049420843F0BD002C13D08B4214D0584201231843F6E70220002EF3D1E3E70220002DEFD1E1E7002DE5D10020002EE9D0EDE7002DE9D1EAE7A242E8DC70
:4021C00004DBAE42E5D80020AE42DDD25842434101205B421843D7E7F0B556464D4644465F46F0B41D000E034C00CB0F87B0070092468146360B640D98466AD06D4B9C4267
:4022000035D08022430F12041343F6001E43C3009946694B00279C460023644402932B0368001B0BED0F51469B46400D009500D178E0604B98426CD05B46DA004B0F8021B1
:4022400009040B4313439B465346D9005A4B9C46002360444246201A6A40924601901F430F2F00D9B0E05548BF00C0598746374300D088E000239946023308270026029319
:40228000CDE74346B34649460093029B009A9246022B00D0BFE1002153460122002689461A40444B002136030C0D2405360B2643434C1B0526401E437600D207760816437D
:4022C0004846310007B03CBC90469946A246AB46F0BD330003434FD0002E00D1BCE1300000F05EFB03000B3B1C2B00DDADE11D220100D31A08393A008F408E40DA40B9462F
:402300001643304B00279C46002360444442029385E753465A4613432CD1002300219B46023397E70B4320D05B46002B00D19EE1584600F035FB03000B3B1C2B00DD8FE119
:4023400002005946083A91408B461D21CB1A5146D9400B0059460B4351469B469140194B9C4660444042002374E7002300219B4601336FE703236DE7002399460133042750
:40238000002602934BE703230C27029347E70122D51A382D00DCB0E153461A4000210023002689467EE700238026994600223603004B77E7FF07000001FCFFFF984B01000E
:4023C000FFFF0F80F30300005E4500D972E100D16DE1019B4D46013B01930023340002935B461E020B0E1E430B020393330C994633041B0C494620000093FFF78DFC009BCB
:40240000370043430600494620009846FFF70AFD2C0C09040C43A04509D9E419731EA74200D95CE1A04500D859E1023EE4194346E41A49462000FFF76FFC0300009A804639
:402440005343494620009B46FFF7ECFC2A040904120C0A4393450DD94346D219013B974200D93AE1934500D837E102235B429C46D219E0445B46D21A4346360433439B4655
:402480000399180C0B0C1D00059309045B46090C0C001B041B0C4443049159436B4368431B190D0CEB189C4203D980246402A44660441C0C09041B04090C20185D188242EE
:4024C00000D2DEE000D1D7E0161A029B9C465D1BAC459B415B42F61AB74200D106E149463000FFF719FC009B04004343494630009846FFF797FC2E0C09040E43B04509D9EE
:40250000F619631EB74200D9F3E0B04500D8F0E0023CF6194346F31A494618000293FFF7FBFB009B06004343494602989846FFF779FC2D0409042D0C0D43A84509D9ED1989
:40254000731EAF4200D9D6E0A84500D8D3E0023EED192404210043463143049E059A3000ED1A0B040C0C1B0C58436643534354439A19030C9B189E4203D98022520294460E
:4025800064441A0C00041B04000C14191B18A54250D34DD001231943964A019B94466344002B00DCF3E64A0709D00F220A40042A05D00A1D8A42894149428B4411005A46CA
:4025C000D20108D55A468C4B1A4093468022D2009446019B6344894A934200DD5BE65A46C908500708435602514601225B058146360B5B0D0A4055E680231B031E4211D0AE
:402600005A461A420ED15E461E433603360B2A0089467B4B46E6032B00D1E1E0012BBBD11A40BBE61E433603360B4246744B39E6002BB1D07D194A1EAF4252D91100A542E3
:40264000A8D1039A9A42A5D1A6E703003E00283B9E400023994654E600F0A2F9203041E603005246283B9A400021934677E6504600F096F920305EE6029B0026AB4200D34A
:4026800023E7039E0299B44661448846B045B6415B467642F619B218013B0291974213D290424FD800D18EE0161A9B460DE7894500D28EE674084B46F60735005B081D4369
:4026C0004B46DB0702938BE69742EDD10399029CA142E5D93E1A9B46F7E69846CAE61E00A5E6AC423ED874D0110053E70121494252E71C000EE71E002BE71F2D3CDC202341
:402700000A0058465B1B9840EA4099400243481E81415E461143EE404B0709D00F230B40042B05D00B00191D99429B415B42F61833023CD55346012200211A4000260123F7
:402740008946AFE502235B429C46039CE344A446029B63449846A045B6417642F6190293B218B1E603988A1E41008142B6417642F619AD19039161E71F225242D31A5A46DE
:40278000DA401300202D29D040225846551BA8400143481E814107200B4318400026002809D00F2200261A401900042ABBD10B0070077602360BDB0803439946012253466B
:4027C0001A4000236EE502998D42BBD89B4600267BE603989842C5D3110032E70020D7E780265B4636031E433603360B009A8946034B57E5FF030000FFFFFFFEFE0700003F
:40280000FF07000070B5002830D0C317C4185C40C50F200000F0C4F8174B184A1B1AD21A1F2A18DD164AD21A9440002224035B05240B5B0D0021100024030A0D1205240B1B
:402840001443104A1B0514401C436400ED0764082C43210070BD210091400A000B21081AC4405B052403240B5B0DE3E70025002300240022DEE7C0461E040000330400006B
:4028800013040000FFFF0F804B0070B55E0D0C03751C640A420F6D052243C90FC4006D0D012D2ADD3B4BF318FE2B1ADC002B42DD8001451EA841D2001043620F024350071F
:4028C00004D00F201040042800D004328020C004104021D00133FF2B03D09201520ADBB201E0FF2300225202520ADB0513435B00C9075B080B43180070BD002E07D0144379
:40290000EFD08020D20080040243FF23D7E722430023002A03D00522D208FF2B03D05202520ADBB2DFE7002A32D08020C00302435202520AD7E71800173014DB8020000403
:4029400002431E20C01A1F280FDC2500124BF3189D406E1EB5419A402B0013432200C2401A430023ABE70023D5E702256D42EB1A1500DD40202809D0084BF3189A401443AF
:40298000621E9441220000232A4398E70022F6E70022A8E780FCFFFF82FCFFFFA2FCFFFF1C2101231B04984201D3000C10391B0A984201D3000A08391B09984201D30009D3
:4029C000043902A2105C40187047C04604030202010101010000000000000000014B18687047C046AC1000200E4B70B500251E000D4CE41AA410A54204D0AB00F3589847A5
:402A00000135F8E712F0EAF8084B00251E00084CE41AA410A54204D0AB00F35898470135F8E770BDE84B0100E84B0100E84B0100F04B010030B50024A24208D0035D651CB1
:402A40000C5DA34201D0181B02E02C00F4E7002030BD002310B59A4203D0CC5CC4540133F9E710BD03008218934202D019700133FAE77047134A1088810703D08107890F4D
:402A8000401A001D11791030484381B25088820703D08207920F801A001D800040180A494030098980B2CA0701D0503080B2890706D504495422091F09785143081880B292
:402AC00070470000FA0C00204011002010B501F05DFF10BD10B501F05FFF10BD10B501F071FF10BD10B500F05BFA10BD10B50749044609780220002907D1204601F0BAFFEB
:402B0000002802D120460AF0F9FC10BD980E002070B504460120002C12D02368002B0FD0616800290CD0074D06222889208118462968FFF78EFF69686068097801700020C6
:402B400070BD000040110020FFB585B0002768460E9D07734F481C460078002802D0082009B0F0BD10990F9801900095029105A807C800F007F90028F2D16946264603ABB2
:402B800084460873002C19D0002115E08A00B75A082F09D990198078002805D0083FB7521878401C187005E0002914D00027B75290198770491CC9B2A942E7D3604600287A
:402BC000CED10F98002809D0109901F08FFA002804D00120C4E701208446EFE701F0F2FE2D480021416081600599016021888180022D07D3A1798171A17AC171A189018132
:402C0000218A418100211EE0481C19E082008B00A75AE65ABE46BE4211D26F463E80B4461E190296B678BE7001967646E6521719029EBB78B3706646A652019EBE70401C60
:402C4000A842E3D3491CA942DED3134822460C3000906846037B0799069800F01BF90028B8D168460B4C007B60700B480C3001F0D9FE0028AED1084907480C3107F09CFC4B
:402C80000028A7D107F0B6FC0028A3D10121217066E70000F40C002034110020F8B5054636480F460078002802D002242046F8BD002F60D000243249002D16D02A89D00791
:402CC0000DD02868002808D003881B3BE12B04D24088FB2801D81B2801D2012409E0900707D56868002804D1F7E70020088108604860002CDAD122482E8906811F481B21C3
:402D0000801D01804180042101711C490020891C0870F00705D019480622801D2968FFF798FE1749B00703D56A68144812788270124D0E46AD1D281F0D60486001F0C0FE4B
:402D4000284601F0AFFE30890EF076F930890DF067FB28880DF06AFB30890EF0D7FA03461033FFF787FE1F21C018890140183880A91F88809AE7012498E70000F40C0020A1
:402D800040110020FFB58446384F1C460020BB883F78054602460646002F11D100290ED0029999420BD36146002908D0002C06D00A99002906D02E4B0B99994202D201209D
:402DC00004B0F0BD002144E0AB001F19BF78002F3BD0E35A002B38D07B43591889B22B0000F04AF8050410161C253100A7782388BC46FF27233BEB37BB4222D26346032BC7
:402E00001FD322E0A388002B1FD0302B19D31CE02389002B19D0282B13D316E0A289002A13D01346134F233BBB420AD20DE0268A002A0AD033460F4F233BBB4201D296427F
:402E400003D901200EE0002001E000280AD16D1CEDB2099B9D42B7D31C2463435B1802998B42ACD89642AAD8AAE70000F40C002079020000BAFF000030B47446641E2578ED
:402E8000641CAB4200D21D46635D5B00E31830BC18470000FFB583B0002469460C801F4606468C80002806D00598002803D004983043800701D0012466E0002FFBD034492D
:402EC000049809888842F6D3FEF7BCFEFEF7AAFE00F012FC002855D100F07AFD002851D12C49084601F036F905042D0C4AD12A480499066081800021C18007810C98007A0B
:402F0000C00704D0684601F076FD040007D10C98007A800703D501A801F076FD0446BF1DFEB2002C20D13146059800F05DF804001AD10EF0F9F9040016D16A461088928806
:402F400008368518144AF1B29088D288AEB29319984207D3401B801A80B201F0EBFB050007D000E0FF25012400F05EFA002D04D008E0F8B200F01CF9F6E700F081FA0749C8
:402F80000120087000F0CAFB204607B0F0BD0000F80C0020D53000004C110020000D002010B503480078012801D101F065FA10BD000D002070B5084B0446DA889E880020EF
:402FC0005518B54206D81D68AA182260DA885118D98070BD032070BD4C11002001480089704700004C110020F0B587B007460D4600208900009006916846FFF7DBFF84460E
:4030000000285DD1304800990160002117E02E4B88001A680629115406D22C4C0419667882185670628805E0C419203CA67A8218567022891B68C018491C4280C9B2A942D3
:40304000E5D300242DE0601CC2B2059025E01E4FA30039689600581840887118039604904E88B04217D938466F46FE80B6464F786E4677710297049F4F800168039F5E1854
:40308000767879184E700168764659184E800068029F18184770521CD2B2AA42D7D30598C4B2AC42CFD36046002809D168460699FFF780FF8446002802D1054900980860D7
:4030C000604607B0F0BD0000040D0020104C0100080D00207047000010B5002809D005494A68002A05D0011F08788000105801F0CFFA10BD040D002010B50446FFF76EFFD5
:40310000C0B2801DA0420CD307484068002808D0A100405801F02EFA002801D00470001D10BD002010BD0000040D0020F8B516460D460446FFF752FFC0B2801DA04203D24E
:403140000020C0430090F8BDB2B2E9B2684601F037FA0099481C03D0024AA000526811500098F8BD040D0020F8B50746FFF736FF801DC6B20A49002005460C680DE0617891
:40318000002907D06188B94202D32078FFF7B4FF002804D1241D6D1CEDB2B542EFD3F8BD040D002010B5002801D0FFF795FF10BD70B506460948002504680BE061780029BB
:4031C00005D062882078121D0023FFF7AFFF241D6D1CEDB2B542F1D370BD0000040D0020FFB581B00A9F16000C4620D000F0F2F8054604281BD0002F0CD03846FFF7B4FFAC
:4032000020492A0151184860002810D03A460499FFF71FFC1B4928010E504618778101980570200406D47D20C000444304E0FF2005B0F0BD6404640C00F0BAF8074604282A
:4032400007D000F04FFAA0420BD800F04BFA201A03E0204600F0AAFA0020F06035720020E6E700F03FFA009000F0B6FA00980121001B009000F0ECF802493A015118009810
:40328000C860E6E758110020F8B5060116483418217A042903D0E068002802D017E00020F8BD00F01FFA054600F096FA00F0A0F804280CD001010C480F18F86800214519C9
:4032C00000F0C6F80020F860284600F06FFA6068054D002801D0FFF765FF042020720020A8516081E060DAE758110020FEB500266A46304601232549050169180D7A042D6A
:4033000002D0C96800291BD000211154401CC0B20428F0D300246846005D002830D01B48210108184189476805680291002101604160042241810272C160002E02D015E029
:403340001354E3E700F054F804280ED001010F4808180190C6680021304600F079F801980021C160304600F021FA0126002D07D038460299A847002F02D03846FFF712FF91
:40338000641CE4B2042CC6D3FEBD0000581100200EB5002005216A460090118150810348694600680EF025FE0EBD00000C0D0020074A0020010189180B7A042B02D0C968EC
:4033C000002903D0401CC0B20428F3D370470000581100200549002002015218127A042A03D0401CC0B20428F6D370475811002030B50A4B04200A4C00210A011219157ACC
:40340000042D06D0D268002A03D09A4201D808461346491CC9B20429EFD330BDFFFF0000581100207047000030B50020074C05460423020111190B72A5504D60401C4D81B8
:40344000C0B2CD600428F4D330BD00005811002030B5094C00231A011219157A042D04D0D568002906D02D18D5605B1CDBB2042BF1D330BD2D1AF7E75811002000207047EE
:403480001CB5002469460C70142001902346054A05480EF0B3FD04480068401C00D1FF2420461CBDFD3400000C0D00203EB5124A0146FF2000230124126800290DD0012920
:4034C00014D0042908D104206946009308814B8110460EF08EFD80B23EBD6846009304814381694610460EF07FFDF4E768460093048143816946EBE70C0D002070B5458900
:403500000468416800890300FFF7B6FC08280509091E22282628002005F00AFF1EE0022908D0C8B22A4621460CF0C6FE2046FFF739FE13E002202A4621460CF0BDFE294670
:40354000204600F00DF809E000200EF051FA05E02046FFF7CBFE01E0FEF796FB002070BD014B0022DB681847100D002070B5448905680089022803D0032809D0FF2070BD5E
:403580002246094C0023A46829460120A04708E0FFF7A4FA241DA2B200232946022006F0BEFE002070BD0000100D002070470000024800214160018041807047100D0020AE
:4035C00070B50C46002186B016460391012802D0022859D116E003A9012006F0F5FE01281BD1039D324621462846FFF732FA0095287801900220694608814E816846FFF75B
:40360000B5FF41E0214D002B686809D0049004A9022006F0D9FE01281DD0022006B070BD002812D0298840182146FFF712FA28880024801980B228806988091D884206D1AD
:403640002C801348FFF792FF03E00320E6E788421AD96C6018E004986860E278A378110219430B4A698000231060E3565360032313815181A1788170E178C17061784170B9
:4036800021780170042028800020C7E7100D0020981100203EB515460C46022803D004280CD000203EBD0091019002206946088107484A8100680EF09CFC07E00CF0FCFD30
:4036C000044B0022DB6829462046984701203EBD0C0D0020100D0020014AD16090607047100D0020034801688068081A0A21484300097047A411002010B5FEF797FA4822B2
:4037000004490548FFF7A5F903490120C870002010BD00002C4C0100A815002010B5FEF77DFA10BD70B5134C2368002B08D0207B1149C20705D04008400020738868A080A5
:4037400070BD88680B4AA18880B29268814203D90A4D691A091802E0814202D2411A5118A160A080A0689842EAD30EF05FFC00F013F870BDA4110020C0102E40FFFF000059
:4037800010B508461946FFF7A7FF10BD704710B5FFF780FF10BD000003480021016041608160C16070470000A4110020024610B5FF20002A0CD0FFF7EFFF064C0321207B4D
:4037C0000843207310010A21FEF72CFB2060002010BD0000A411002000B504480A21806848430209FFF7D8FF104600BDA41100200248007B8007C00F70470000A41100204B
:4038000010B54B490868002802DA4A4B01221A70022290430860484800694549C00B4031096A0246C907C90F0A4259D0012000F0E5FA3F480E216C30FEF74CF93E4820213C
:403840008430FEF747F93C4814219C30FEF742F93948FF21C131A430FEF73CF93648FF212F31B030FEF736F933483449BC30FEF731F931483249AC30FEF72CF930492E483B
:40388000491CB430FEF726F92B482E49B830FEF721F929482C49CC30FEF71CF926482B490830FEF717F924482949A830FEF712F9214828498830FEF70DF91F4826498C30EA
:4038C000FEF708F91C481921C9029030FEF702F9FEF702F9FEF7BEF9C0B2022812D01FE000290BD0002101420AD0114801216030FEF7F0F80120FEF78DF997E70121F2E761
:40390000FF2010BD15491648FEF7E4F814481549001DFEF7DFF8124800210830FEF7DAF854200449C043891C0870002010BD000000F02E40200D002000002E4032030000D5
:403940002F3F00003102000010520000EC160000FA12000031D000003AE300009956000080012E40F80F000070B50646581C80B245086D00002408E0304600F0C1F81055D2
:40398000000A1119A41C4870A4B2AC42F4D3D80705D0D0182038D15CC47FD454C17770BD30B50A4C002100195B1E07E0541864782502545C2C430480891C89B29942F5DBED
:4039C000994201D1515C018030BD000000102E4010B5FF2000F012FA0F49FF2048700E481021801D41800121417001700A490020C91C4870FFF704FF04000AD100F02EF94A
:403A000007210648FEF764F8044807211830FEF75FF8204610BD0000200D0020CC112E4070B5002405465B1E0AE0284600F068F8010A161971702D1D1055A41CADB2A4B2F8
:403A40009C42F2DB9C4203D1284600F059F8105570BD000070B500210A4D5B1E0AE0541864782602545C344346193480001D891C80B289B29942F2DB994202D1515C401973
:403A8000018070BD00102E40F0B50599091FCFB200217E1E0BE0541864782502545C2C43164D45192C80001D891C80B289B2B142F1DBFC0712D01C78515C24020F4A0C4369
:403AC00081180C809C785D78001D210280B2294384182180001D80B2D9780CE059781A7809021143054A84182180001DD9789B78090280B2194380180180F0BD00102E4065
:403B0000014940180088704700102E4010B50B490020487000F0A2F8002000F095F9002000F082F907210648FDF7D2FF044807211830FDF7CDFF002010BD0000230D00208E
:403B4000CC112E4010B50C48007801280FD100F089FF00F0DDF8002804D10848016A490849000162054802213030FDF7B3FF02490020C91E087010BD230D002040F02E4073
:403B800010B50B46062812D006DC01280CD0032801D1FFF7BBFF10BD0A28FCD00B28FAD105480078107010BDFFF712FF10BD1146184600F065F910BD260D0020F8B5244D5B
:403BC000AC6A0127A007234E002816DA307806280ED1286A384328621F480069F903084381B21D481030FDF775FF042000F006F9174802212830FDF76BFFE00718D000F0AA
:403C00006BFF01280FD1002000F0B8FF062000F0F5F81049FF20C91E48707078002802D1686B384368630A4801212830FDF750FFE0050BD53078042802D1052000F0DEF8CE
:403C40000348FF2101312830FDF742FFF8BD000040F02E40230D002000002E4010B503212348FDF737FF0120FDF7D0FF20483038406A204C80076178800F890001431C48A1
:403C80000C38FDF727FF6078002808D0401E022181401820FEF7B0F9C000083800E0B82081B21548FDF716FF1348032109021438FDF710FF10481149B830FDF70BFF612172
:403CC00089010F48FDF706FF0D480321001FFDF701FF0C490C48FDF7FDFE0B480B496038FDF7F8FE084801218838FDF7F3FE10BD70F02E40260D0020D8102E409089000029
:403D0000041E2E40FF0F000058122E4020900000044800684007400F022801D0002070470120704700010B4000B5FFF7F1FF002805D009480168C908C900016000BD0748C4
:403D4000016A490849000162054801690122D2039143016100BD000000010B4040F02E4000002E400849087806280BD148780749002803D1486B400840004863C86A0122BF
:403D80001043C86270470000230D002040F02E400148007870470000230D002000B50300FFF76AF8080D050D0B070507090D012000BD032000BD042000BD022000BDFF2011
:403DC00000BD0000074A9168D26889B2064B92B2994204D105498A4201D1012100E000210170704780002E4033D000003FE300000149487070470000230D002010B50446A0
:403E0000FDF710FF072C01D9FF2C01D102480470FDF704FF10BD0000230D00200149487070470000200D002010B5064A012805D01921C9021046FDF74DFE10BD1D21C9021A
:403E4000F8E7000090002E4010B50A4A141D012808D009491046FDF73DFE08492046FDF739FE10BD04491046891CFDF733FE0349491DF3E788002E4031D000003AE3000087
:403E800070B50C460546FDF7E5FEC0B202280E49287804D0FF2810D04C280CD810E0FF2809D10A4AD0680004800F032801D0087807E09069000A553803E00878207070BD80
:403EC0004F382070087070BD220D002000002E40F0B50122002834D0002932D00424420600D00524792342065B06D21800D0641C034600221EE00C2516466E43124D002715
:403F00007519AF72104F002ABB51696007D0661EB24209D10D4E86197606760E05E05E06760E8027BE1B00E080269B198919521C2E81D2B2A242DED303480549006B0022CC
:403F400088611046F0BD000030140020790200002C0D002018B50020694608700A48006900280ED0132149014018047E684604704F21C900054800F059F8A04201D0012033
:403F800018BD002018BD00002C0D0020B4110020074900200C2242435218927A012A05D0401CC0B20628F5D3002070470120704730140020F8B50E000446154609D0194FE8
:403FC00019497868A04202D94018A04201D38D4201D90120F8BD31462046FEF72BFD00281ED02A4631462046FEF733FDE8B200210C224A43D21913895568EE18A6420BD927
:404000000126641B1B1B9672834209DA1469C01A044AC0B220329676491CC9B20629E7D30020F8BD3014002079020000034610B50020024604E09C5C2018521CC0B292B254
:404040008A42F8D310BD000070B500F05FF8084C064A216907480D46FEF7FBFC05492846FFF736FFFFF776FF207070BD790200002C0D0020B4110020002070470020054AA6
:40408000002902D0012902D002E0906000E0D060002070472C0D002070B5084C154608460549E26889182A46FEF7D3FCE0684019E06028B270BD0000B41100202C0D002042
:4040C0003EB50A226946FFF7E7FF044606480A2200686946FEF7AEFC002802D00020C0433EBD20463EBD0000300D0020002802D0044A914201D2FF20704703494A610861A2
:4041000000207047790200002C0D0020024800218160C160704700002C0D002070B5074C15460548A26880182A46FFF743FFA0684019A06028B270BDB41100202C0D002047
:4041400010B503490A220968FFF7E8FF10BD0000300D002010B50F4A002313600E4A13600E4B18600E4801600E49012008600E490860000290600E490C4808600D49143045
:404180000860FF381538506000F0BCF800F0CAF9002010BD600D0020480D0020740D0020780D0020640D0020540D002078150020580D00206C0D0020014610B500200029A5
:4041C00010D0094B1A689C685118A14209D25868196080188A0704D08A07920F891A091D196010BD002010BD480D0020F8B50024164E671E321F3D463168136806E0142247
:40420000624310328A58521C1BD0641C9C42F6D36A1C14D02C461422544322460C3288500C214843FFF7C8FF3168002808510AD031680020103408517068401C70602846DD
:40424000F8BD2546E4E73846F8BD0000580D0020F3B50026F64381B000281BDB1E490968884217D80299002914D01B4F142204463F1D54432546396810354859401C09D008
:40428000FDF7D0FC38682F1F4159C359994203DBFDF7C4FC3046FEBD214608310091465801590C20704308180C220299FEF7D1FB0948761C001D0068C159B14200D10026DE
:4042C0000549009A091D865008684159491C4151FDF7A4FC0020FEBD540D0020002803DB07490968884202D90020C043704704491422091D0968504310300858704700009F
:40430000540D0020F0B500200D4A451E0346171F50600FE014260146714314680E1DA3510C461668083433511668083435511468401C635039688842ECD30020F0BD00003D
:40434000580D0020F3B50026F64381B0002841DB2349096888423DD8029900293AD0204F142204463F1D54432546396810354859401C2FD0FDF756FC3868415900292BD0DF
:40438000211D009146580C21005971430F46C1190C220298FEF75DFB11480021001D0068761C00590C34C0190160416081600C48001D00680159B14200D100260849009A24
:4043C000091D865008684159491E4151FDF726FC0020FEBD3046FEBDFDF720FCFAE70000540D0020FEB504460D4600201E49089E0860471E009001900290002C11D0486870
:4044000085420ED2002A0CD0002E0AD0642E08D808460C3001681C2068430C18207A002801D03846FEBD0120226020721846FFF7DDFE6060401C13D06681A6810A48276140
:404440000C3067610179A94200D205710021684601810A462846029B00F040F82846FEBD00202072DDE70000600D002038B50124009400F039F838BDFEB50027164EFF434F
:404480003D4600240EE01C20316860430818017A002906D04068FFF721FF002801D0254603E0641C3079A042EDDA681C12D01C2130684D434419FDF7B5FB69466068FFF745
:4044C00041FF0546FDF7AAFB002DD9D1216868468847D5E7FEBD00006C0D002038B50024009400F001F838BD1FB500220C49541E0A60002811DB496888420ED808491C22FD
:404500000C31096850430818406801A9FFF7A0FE401C02D0002004B010BD2046FBE70000600D0020F0B50021114A4D1E174611710C3F0B46BD6016E008461C2460431668C7
:40454000041D355114680646235014680836A3551468361DA353044616680A34335318301468491C255078688142E5D30020F0BD6C0D002038B500210091002811DB0F49EC
:40458000097888420DDA0D4D04010C3529680859002807D0201D0818694600F06FF9002801D0002038BDFDF73DFB28680F34015D491E0155FDF732FB009838BD7C0D002055
:4045C000F7B582B0002502986E1E06602E48D21C024017462D4A2C4610460C380178106805E02301C358002B0FD0641CE4B28C42F7D3711C28D03401211D4018019103995B
:4046000000F02AF900281FD101E02646F1E71F48016820460C300F521C480399026820460E30115419480399026820460F3011540398784300F0A0F8144900280968085146
:4046400002D00024009011E001251AE00F48016801980818009900F02CF9002801D0012502E00098C0190090641CE4B203988442ECD3002D05D10298066004480179491C16
:404680000171284605B0F0BDFCFF0000880D0020F8B50D4600216A468C461180002839DB23490978884235DA214B04010C3319680A59002A2ED020460C300B5A801C0E5C09
:4046C000184670438018954224D3854222D2002006E007465F43BF18AF4206D0401CC0B2B042F6D36046002814D0114E271DC8190C366A46294600F006F900280AD1684635
:404700000088012808D030682946C01900F0D1F8002803D00120F8BD0020F8BDFDF782FA30680F34015D491C0155FDF777FAF3E77C0D0020F8B50F46002400F031F80028FE
:4047400017D10C4900220B460C334A600EE021011D680E466A501D680C36AA53B61C1D680F31AA551D68641C6A54E4B2BC42EED31A71F8BD7C0D002000280BD0C01C074A72
:4047800081085068890053884118994203D893685160181870470020704700007C0D0020F8B5064600200F4D009029700C0121466846FEF7FFFB00280CD129460C3100983A
:4047C0000860301B001F84B221466846FEF7F2FB002801D0FF20F8BD6C800098A8600020F8BD00007C0D0020F8B5002827DB19490978884223DA174C05010C34216848598F
:4048000000281CD028460C30085A009028460E300E5C401C0E5420682F1DC01900F064F800280CD12068002445590EE0094829460C300068C01900F03CF8002801D0012043
:40484000F8BD00982D18641CE4B2B442EED30020F8BD00007C0D002030B50D4604000BD0A800FFF789FF6060002805D000202570C0436080002030BD012030BD70B50D4636
:40488000040005D0002D03D00220205E002801DA012070BDFDF7C6F90221615E60688900405828606088401E6080FDF7B7F9002070BD70B50D46040007D0002D05D0022199
:4048C0002078615E401E814201DB012070BDFDF7A9F96088401C00B26080616880000D50FDF79CF9002070BD10B5040009D0227800216068FEF7B6F80020C0436080002043
:4049000010BD012010BDF0B500231D46002802D00224045F0AE00120F0BD46689F00F6598E4201D1012503E05B1CDBB29C42F4DA15700020F0BD0000014800787047000095
:40494000900D00207CB505460024FEF7C7F8A8796946087000A8062229460130FEF779F80021684604F0AAFF0C2806D0072806D01F2806D0122806D006E0022404E0042448
:4049800002E0272400E0012420467CBD0148012141727047B016002010B502280BD0032802D0042809D102E000F076F905E000F021FAFF2801D100F031FAFFF7E9F9FFF78B
:4049C000EDF910BD10B500F059FAFFF7E1F9FFF7E5F910BD70B504460025FEF77FF8002C06D0A079012803D8214602F0D7FD00E00125284670BD01460120002902D05020CB
:404A0000088000207047000001460120002905D003485422007850430880002070470000920D002010B502460D49FE204870032410460DF001FE002810D10DF0A5FD002845
:404A40000CD105F01DFD002808D100F027FC002804D105F0D9F9002800D10024204610BD900D002002480021018280210180704700102E4070B50025044600280ED0A0796D
:404A800001280BD8FEF72AF8A0790028204602D003F060F903E003F035F900E00125284670BD0000014610B50120002904D006220248FDF7CEFF002010BD00009C0D002056
:404AC00001460120002903D0087802490870002070470000920D00200148007A70470000B016002038B504460120002C20D0617801291DD800290BD0FF25E535FDF7EEFF8A
:404B00000C4828180088C0B22070072803D00EE0FF25CD35F2E70020694608706846FFF751F969460878012801D108202070002038BD000000102E40014A00219268104701
:404B4000900D002008B500226B461A7026280CD0094A342852680BD0352805D1900703D50021352005F068FD08BD19462620F9E7D007F9D03420F5E7900D002001490872E3
:404B800070470000B0160020F8B504460120002C26D06178012902D92278092A20D8002905D0FF25E5352078092803D004E0FF25CD35F8E708202070FDF790FF2078114F87
:404BC000114E08280DD00020FFF73EF970780128207810D00D4969180880FE2070700020F8BD0120FFF730F90720B8810549203188800120F2E7B881024821782030818093
:404C0000EBE70000C0112E40900D002000102E4070B50E46050001D0002400E00C4C002C11D0E28A500609D5D107C90F022003F02FF9E08A40218843E08204E0D107C90F57
:404C4000012003F025F93146284602F003FE70BD10160020F8B50546002004460D4E009013E022466946284601F0FEF80098002801D00DF0C3FCA878214602F0CDFBA8785D
:404C8000214602F0BBFB641CE4B2308AA042E8D8F8BD0000DC160020F8B54E4CFFF778F8012847D14C480078002843D002F05AFD00283FD004F0A4FA00283BD0474E7078B5
:404CC000C00703D000F01CFD012833D0307E00287DD17078002500285BD0000706D540488089070B00F02EF9384370D13B484178684604F0CBF821793A4CA2788918C9B212
:404D0000814262D802F02EFD002860D0344860300789324E203602F06FFB6846008802F099FB02F035FC30490988884203D10120FFF764F84BE02D49012008702748807B95
:404D400000281DD0002F1BD04036F07E002817D123486030008821494000C031498981420AD26078002807D103F0C0F82049088A03221202104308822078002800D02570C8
:404D800002F09EFB0120FFF733F800F025FC174C15E002F0E7FC002819D0102402F0F8FB214602F0E1FA02F055FB104C0120207002F086FB0020FFF71BF800F00DFC20780E
:404DC0000128B4D1FEF7B0FF25700020F8BDFF20F8BD0000E8150020200D0020F0150020A0102E40B60D0020C80D0020A20D0020E0112E4010B50848FF244078002809D17E
:404E000002F0B0FC012805D1FEF79CFE0720FEF7F5FF0024204610BDF015002038B5FEF7B7FF012801D0002038BD02F09BFC00280AD0114C6078C00703D000F061FC012843
:404E400002D0207E002801D0FF2038BD617800290FD0684604F01AF8022806D96846008802F0F8FA012002F035FB0320FEF7C6FFD9E70020F7E70000F015002038B51E4CA3
:404E8000FEF786FF042813D0052811D0062812D003282AD007280AD100206946087002460120FEF76DFEFEF773FF0128FBD138BD00F0B2FB38BD02F025FB00F0ADFB02F08D
:404EC000A1FB8007800F0228F4D10C4841880029F0D05B21095D0029ECD101210170A07D0140022002F0D4FF38BD02F00FFB0120FEF784FF38BD000010160020B60D0020C3
:404F0000F8B50646002403F031F80546304603F047F803460A480021068A0DE001228A401046174628401F40002803D0002F01D1224394B2491CC9B28E42EFD82046F8BD6C
:404F4000DC16002070B500252C460A4E03E0002C01D0002000E030460079002803D02046FFF7CEFF0543641C2406240EEFD0284670BD0000101600201CB5002069464870FC
:404F80006846FFF7AFFD01AA69460A20FEF7F8FD6946042008561CBD70B50D4601F04AFB04000BD02079002808D0FDF797FDE178A0782A4602F0D4FC002070BD022070BD3C
:404FC0000148007870470000E81500204030C07E002800D00120704700B500F001F800BD902148430749084A40186030417F491CC9B24177D289914201D300214177C8B2D0
:4050000070470000F0150020DC16002013B501F011FB04000BD001F0AEFE002807D0214601AA0A310620FEF7ABFD00201CBD02201CBD000010B50C4601F0FCFA00280AD03E
:4050400001F099FE002806D0224604490A20FEF797FD002010BD022010BD0000D1150020F3B581B0074601460026029802F076FF0446002F01D0002500E0154D002D21D0FD
:40508000284601F00DFB032C04D13946029802F0C1FF06463846029902F0B0F9032C06D0002C10D00121384601F000FC03E03146384603F0B5F9284602F08EF8022128462C
:4050C00002F0A4F8FEBD3846029902F097F9FEBD1016002010B5044600F066FA002804D103F068FE002801D00C2010BD2078611C02F038FDFF2801D01F2010BD02F07EFD77
:40510000FF280AD02178621C02F000F9044821780068026B601C904710BD072010BD0000DC0D002010B503F045FE002801D00C2010BD02F0F9FC03480068C06A80470020FD
:4051400010BD0000DC0D002070B50D46044610210DF094F91021601806460DF08FF9334610221946204603F053FE102130460DF085F902202870204604F07CFD70BD0000D2
:40518000F8B504464078217802028006870FE0781143A67809050002090D0643084601F049FA00210546F2B2002812D0002C10D0022F0ED0032F0CD0002A0AD00279092AD7
:4051C00007D0002A05D0134A5A23527E1B5C9A4207D82889002104F082FC20460DF00EFAFF21002914D10C48224600682946436930469847C0B2FF280AD128464030817E3B
:40520000F2B2491C8176FF232146284600F0E3F8F8BD0000A8150020F80D00200020704710B5044603F0C6FD002801D00C2010BD2078611C02F096FCFF2808D002F0CEFB14
:40524000044821780068426B601C904710BD1F2010BD0000DC0D002010B500F06BF904F0D3FD002010BD10B5044600786178E2780843A1781143084321790843617908436E
:4052800005D003F089FD002803D00C2010BD122010BD204602F05EFD002010BD10B5FCF7D9FC02F085FE044803F0E8FE02F0A0FB012000F003F810BDB8150020F1B586B0B7
:4052C00003A8009005A8019028489F22817A114081726846FDF71CFC002845D169460989C90705D0224806990068C2686846904769460989890706D5002835D11D48006820
:40530000816A0698884700282ED11B4E0025757075737571F575357675767575B570F570B5713746F5730120D03738731F20F880FF2130467972A0300176457600F0DCFA5B
:4053400000242046069901F0C1FC002803D1641C2406240EF5D0FD720749BD72B573C0310D704D704D600D7207B0F0BDA8150020F80D0020DC0D0020F015002070B5054648
:405380000E46084602F0F2FD0446304602F008FE0121A9400A46224001400A4301D0012070BD002070BD10B50446084602F0F8FD0121A140014201D0012010BD002010BDC5
:4053C00010B5FEF7E5FC032804D102F09FF80120FEF714FD10BDFEB51C4616460F46054601F0FAFEA878FFF7F7FD02460190334639460094284600F00DF8002808D1A878A8
:405400000199FFF705FCFF2C02D138460DF0F6F8FEBD0000FFB585B005460E980C46FF2810D02B49C00009680A5840180179C0795278814201D9012601E09006860F68462C
:40544000038108E06078A1788006860FE0780002014368460181284601F098FC070007D021462846079A00F093FC384609B0F0BD304600F041FD04AE0346039002AA2946EF
:405480000096204600F0CDFB3C20405D002818D0284601F07BFC012813D0684600890096C0B20190A878231DFF22079902F086F968460089039BC2B2A878079902F0C6FC2E
:4054C000D3E7684600890021C0B20091E9E70000F40D0020F8B5002600253046FFF710FD07001DD090201149704340186030447F12E0601CFCF796FCCCB23846E040C00703
:40550000C00F07D02146304601F06EFF21463046FFF7A6FD6D1CEDB20548018AA942E8D8761C3606360ED7D0F8BD0000F0150020DC16002010B502F05BFA0020FFF7BEFEE6
:405540000DF0F2F8002010BDF8B5002400F0D2F80123012800D10124104F00203E4620360425082203E0002801D0002100E031460979002907D001290BD002290BD01146A5
:4055800081402143CCB2401C0006000EEBD07C70F8BD1C43F7E72C43F5E70000F015002010B5FFF7D1FF10BD10B5044604F07EFD002802D1601C00F001F810BD1CB50024D7
:4055C0000094062269460194FDF734FA002800D1122420461CBD000070B50E4CFCF771FA0546FEF7D5FB062802D02078012803D02846FCF76AFA70BDFCF77CFB2846FCF7DD
:4056000064FAFEF7C5FB0628F5D020780028E5D170BD0000A20D002010B5FCF752FA0446FEF7B6FB012809D0FEF7B2FB022805D0FCF760FB2046FCF748FAEEE72046FCF744
:4056400044FA10BD10B50B4681791943817103D08078114602F0C8FB10BD10B582798A43827102D1807802F0D3FB10BD30B50C4C0220A28A0B4B9978002901D0022906D157
:405680001D785B78EB18282B01D9032002E0032900D101205105490DC0020143A18230BDC0112E40AC0D002000B500F029F8002807D0012805D0032801D0042801D0002079
:4056C00000BD012000BD014600B50020C90701D000F010F800BD014600B50020C90701D000F008F800BD00000148006870470000A40D002001480088000A704720102E40CA
:405700000448008B410501D5042070474007800F7047000000102E400148406870470000A40D002038B50446000610D5FFF7E8FF01280CD1684601F0F9FE6846007800F066
:405740002BFB012001F0B0FD0220FFF729FF600708D507480179012904D1002101712620FFF7F0F90348006801692046884738BDB00D0020DC0D002010B501460A4A00783B
:4057800000241070FFF7B6FF0128084603D002F04DFA204610BD00F0E7F80400F9D1034801210170F5E70000AC0D0020B016002070B50446FFF79EFF002801D00C2070BD7A
:4057C000A27B01211F48002A827801D00A4301E05208520082706279012A14D0C17849084900C170184D2868016820468847207901280CD06188208803F08EF820802079E0
:4058000004280FD015E0C2780A43C270EAE72868C168E01D8847E01D02F088FA0B48808C208006E02868C168E01D8847E01D02F07DFA074920798870204602F005FA0020C0
:4058400070BD0000F0150020DC0D0020A8150020AC0D002008B50178FFF74CFF814201D10C2008BD002914D0072069460870FFF71BFF012807D10121684600F0E5F80128E8
:4058800001D0092008BDFFF7F1FE02F011FA012011E0FFF709FF012806D1684601F046FE6846007800F0ACFA02F0F8F9FFF722FF0028FBD10220FFF773FE002008BD00003C
:4058C00010B501460A4A007800245070FFF712FF0128084603D002F067FA204610BD00F065F80400F9D1034801214170F5E70000AC0D0020B016002038B568460CF014FE98
:40590000002801D01F2038BD01210098C90201804180002505714571857107214173857302F092F9009C202200212046FDF79AF825702A460021601CFDF794F8204602F076
:4059400075F9204602F030FA00980CF057FE062200210448FDF786F802480C388560002038BD0000B00D0020F8B5044600250D4800950078012806D068460CF0D5FD0028C1
:4059800003D007250CE00C250AE0074E009830602278611C401CFDF75CF83168207808702846F8BDB0160020A40D0020F8B5044600250D4800954078012806D068460CF0BF
:4059C000B3FD002803D007250CE00C250AE0074E009870602278611C401CFDF73AF87168207808702846F8BDB0160020A40D00200346084800B5834209D8184600F01AFE56
:405A0000002804D00089984201D1012000BD002000BD0000FF0E0000074A9179491C8906890E917138220A4092014907090E11430843024908407047F0150020FF0E0000CC
:405A4000C006C00E70470000F8B507460E4600240D4803E0002C01D0002500E005462979002905D0641C2406240EF3D00020F8BD0021204601F02AF92E712046FFF7CCFF6F
:405A800028813C700120F8BD1016002010B503F0F3F90222002100F003F801F055FF10BD10B5094B40074907000F090F185A595A40185043C0086421FCF7B4F9002800D1C2
:405AC000012080B210BD0000744C0100F7B53D20405C88B015460C46002802D02878042802D200200BB0F0BD6946087200262046FFF76CFA012800D00126204603A938306E
:405B00000191009023460327A17E34333246206A03F0CEFA02A8089900900B46019120463A4603A9243003F053F902466846007A2870204601F0B6F81046D3E7FFB587B082
:405B40000C4605461078694608723D20005D1746002826D000262046FFF738FA012800D00126204603A93830019100902346A17E34333246206A03F09BFA02A80090291D39
:405B8000019120462B1D03A924300A9A03F020F902006846007A388002D1204601F082F810460BB0F0BDF0B505463C20405C89B016460C4600280CD03078694608730028E4
:405BC00006D000272046FFF701FA012803D003E01F2009B0F0BD012703200890204604A93830019100902346E17E34333A46E06903F05EFA6846007B03A9281802900091D2
:405C000020462B46019504A92430089A03F014F902466846007B3070204601F04DF81046D7E7FFB505463C20405C89B016460C46002810D0084601F0A9F801280BD0308811
:405C400069468883002809D000272046FFF7BEF9012805D005E000200DB0F0BD0220FBE70127204603A93830019100902346E17E34333A46E06903F01BFA291D2B1D07A8BD
:405C8000129A6D4607C5204603A924300C9A03F0D3F802466846808B3080204601F00CF81046D9E770B50D460446FFF78FF901280AD0E87AA97A00020143A07801F030FD89
:405CC000012808D0002070BD00222421204602F075FD242070BD28214C200155204600F0B1FB282070BD0000002801D0002000E003484030C07F012800D00020704700006F
:405D0000101600200146002049070ED50021084B03E0002901D0002200E01A461279022A04D0491C0906090EF3D0704701207047101600200146002049070ED50021084B14
:405D400003E0002901D0002200E01A461279022A04D0491C0906090EF3D07047012070471016002010B5044680346068002803D00CF058FC0020606010BD403041707047DB
:405D80004030817070474030017070470171704792001018C166704770B53C2501F09CF9040004D020460021433001F059FCFF222946204600F0E8FB002C02D0A07801F07E
:405DC0000DF970BD10B5002801D0002000E00348002802D0008903F0C9FE10BD1016002010B5002801D0002000E00448002804D00179072901D100F047F810BD1016002053
:405E000010B501F069F9002802D0807801F0E6F810BD00207047000070B50546008A00281ED01049F122897A1140C90618D5294640314A8A098A521C4A4392B2D10800D129
:405E40000121540801E0621A94B2A042FBD9FEF773FD012804D1298AA878224601F036FD70BD0000A815002010B50023054C0B60248A944204D992001018C26E0A60C366FD
:405E800010BD0000DC16002038B5044600200090A079002814D14020015D052901D00E290ED168460CF050FB002809D12046009902F062FC03481021C28A2046FFF7C2FBFC
:405EC00038BD0000A815002010B50B4604460146184602F0D3F8002802D020460CF098FB10BD13B5044601AA11460620FDF748FE6846818861811CBD002800D1022070479A
:405F000070470000F8B504462346401D543300909A1EA078911E01F025FB25464035A88A298A8000FBF77EFF401E81B2688A884203D96982A07801F0E5FF698A8C200151A0
:405F400020460021433001F08BFB27480088E88102F092FFE989891C8AB26179FFF7A0FD01F0F2FC02F088FF2A8A6179FFF798FD074601F0DDFC688A002806D01B49088A9F
:405F8000032212021043088202E0002001F0AEFF1648803801886E8A002E0CD0304648431349FCF729F80004000C01D0401C80B21049488002E00F4800214180288A704309
:405FC00081B2A07801F0FEFEFF2228374932B9B21346204602F0A4FCE98AA07801F072FEA07801F02BFAF8BD80102E40E0112E4071020000B60D00207FB504468034616835
:4060000005460E46183108226846FCF722FD31462031082202A8FCF71CFD102168460CF02DFA6068102108300CF028FA60682B46083024331022694602F0EAFE7FBD10B511
:4060400004460821FFF709FB10212046FFF705FB207905281FD006281DD008281AD12189002003F0FBFC072020712046FEF7AEFF014620464030012913D00E2101700021DC
:406080000176204600F0BCFF2046FFF76BFE2046FFF7C2FE10BD20890122002103F0C2FCE1E70521EAE70000FFB581B01F4604460821FFF7D2FA10212046FFF7CEFA2079E0
:4060C000082803D0092804D0042203E00422012501E009220025204600F044FE264600204036307022712046FFF73CFE0398002D02D0012808D00BE001280AD1208900225A
:40610000029903F08FFC04E02189029803F0A6FC012700203076012F04D0204600F070FF05B0F0BD02983073204602F073FB054605480121C28A2046FFF784FA002DEFD1A0
:4061400009202071ECE70000A815002070B50C460546FEF73BFF012809D108212846FFF77CFA0023012221462846FFF79DFF70BD10B5044600F0F6FD2046FFF7F3FD002185
:406180004034217010BD70B505461A24FEF71EFF012809D108212846FFF75FFA0023012221462846FFF780FF70BD0000F8B50446002000900E4668460CF0C6F9002801D04A
:4061C0000D20F8BD8420005908212030009D00F02CFA20460421383000F027FA002E02D1204600F0FBFD2946204602F054FA0E480821C28A2046FFF725FA204600F071FF20
:4062000025464035002808D0204600F023F8002801D0092028700020F8BD08202870204600F0DAFFF7E70000A8150020014610B540310A460978082906D0092907D00A2943
:4062400001D100F091F810BD0B20107010BD00F001F810BD70B50446007925464035052805D0062803D008280FD00C2070BD03220621204602F0A2FA0D480821C28A204635
:40628000FFF7E0F91120287010E006202873204602F0C0FA0646AA8A0A20424301212046FFF7D0F9002E01D109202071002070BDA815002038B504460020009068460CF098
:4062C00043F9002801D00D2038BD2046009D00F0C3F908202071204600F080FD2946204602F00CFA00213D2001550F2040210855204600F071FF002038BD00B5024600F0B6
:4063000031FD10214032117000BD10B50446FEF75DFE012809D04020005D112805D100231A4606212046FFF7BFFE10BD10B5FFF786FE10BD38B504460021684600910CF0F2
:4063400003F900280CD12046009902F058FA05480821C28A2046FFF775F90D204034207038BD0000A815002038B504460021684600910CF0E9F8002801D00D2038BD204655
:40638000009902F031FA05480821C28A2046FFF759F90C2040342070002038BDA815002000787047F8B5002569460D70002801D0002400E01F4C002C18D0204600F0DBFCBF
:4063C000002813D0207903280BD005280CD026464036B18AA07801F0FFFCB078012806D01DE0042020711DE006202071F8BD0021204601F060FE274680373868002802D0F3
:406400000CF010F93D600020B0702079072802D12046FFF701FD0221204600F0F7FE20790428E3D1207A694608703420FEF78AFBF8BD00001016002010B54C22115400F08C
:4064400052F810BD10B50446FF21FFF706F909202071A07801F0E6FC10BD000038B5FF216A461180002801D0002400E00B4C002C12D011460620FDF783FB68460188204633
:40648000FFF72FFD204600F087FC002804D104480068C1692046884738BD000010160020F80D002010B504468079002809D022214C200155FF212046FFF7CFF8204600F0CA
:4064C00012F810BD10B5037902464032002B03D01173092B02D003E0002100E02221117300F001F810BDFEB504460089002700902781207926464036002817D0012815D064
:4065000002280AD112E002AA01A9204601F0A4FD002807D101980CF07BF8204601F0C4FD0028F0D02046FEF795FBB776254680352868002802D00CF075F82F60686800285C
:4065400002D00CF06FF86F60317B002919D0009800F064F8A078002100F092FF2046FFF795FAA07801F0C6F8A07800F037FDFF212046FFF772F80B20FFF712F800F068FC68
:40658000FEBD1F213173E2E7F8B517460E46054602F06EFC04003CD020460C3001F050F82046062200211830FCF75CFA2046062200211230FCF756FA164822460068394662
:4065C000436A28469847074626702846FEF7FEFC012148406070002D10D02889608028464030C1782171002E0FD169796171018AE180418A2181808A608106E00648008BDB
:40660000C005C00F2071002060803946204603F0A8F9F8BDDC0D002000102E400A4610B50146002003F0BAFA10BD10B50BF002FD10BD000000B50146FFF702FA002801D01D
:40664000002000E00348002802D002898A4200D0002000BD1016002038B5044680346068002806D168460BF07FFF002801D100986060606838BD000010B5014600F086FB26
:406680000128887802D0FEF7ABFC10BD90214843024940186030007F10BD0000F015002070B5054604464035A87F012811D1A1789020084A484380186030067F3046FEF777
:4066C0005DFE002805D10220A877A078314601F0CBF870BDF015002010B50C4CA07A002813D0FEF7F7FE0A48027F417F408B00F0B7FB012809D10020A07200F02DFF0549A0
:406700008989090B01D000F03BFA10BDC0160020F0150020A0102E4070477047490510B5490F0B00FCF7A8FB060704080C0C0F073E21FFF781FE10BD0821FFF7C3FE10BD28
:40674000FFF7D1FE10BDFFF7ADFE10BDF8B507460025002D01D0002600E0204E00F0A6FE3046403044890021418100F0C3FE304600F001FB01282BD1A00702D52846FFF744
:4067800011FEE00602D52846FFF768FEA00601D5FEF7A0FE600601D500F014FB200602D5284600F01DF8600702D5284600F02CFA380402D52846FFF713FB780402D5284681
:4067C000FFF700FBE00703D021463046FFF7A6FF6D1C2D062D0EBCD0F8BD000010160020F8B5002801D0002400E0284C002C4BD025464035A878012846D1FF278820493705
:4068000000593E46002805D02149897A890601D5878AC68A2046FEF7D9FB012834D002F02BFB2A8A6179FFF73BF9009001F080F800983346283081B23A46204602F070F84A
:40684000E98AA07801F03EFA12480188688A124E002810D048431149FBF7CEFB0004000C01D0401C80B27080A07DC107C90F002001F00EFB01E000207080288A698A484330
:4068800081B2A07801F09EFAF8BD000010160020A815002060112E40B60D0020710200000149096809680847F80D002070B50D460026194A0146002801D0002401E01446B7
:4068C0002034002C26D0204600F060FA01280AD19020484380186030007FFEF74FFD002801D101F017FF0D48006881692046884700280CD020464030817EA94202D3491B71
:40690000817600E086762089294603F0E8F8204600F062FC70BD0000F0150020F80D002070B503460088FFF785FE040013D000F022FA00280FD02079092819D025469978D6
:4069400040352973204601F065FF0646A878012803D0AA8A02E0022070BDEA880A20424301212046FEF76EFE002E01D109202071002070BD0EB5002217216B460292198171
:4069800000905A810120029B00990BF0EBFE0EBDF8B518480024807A002822D1164E0025B089000B22E0204600F074FE1249A039401807882A462146384600F051FA0128B5
:4069C00010D00E480122478305770A4944778A72002D01D0002000E02030002801D000F0FBFBF8BDB089000B641CE4B20028DAD1F8BD0000C0160020A0102E40F0150020F1
:406A000010B50088FFF716FE002809D0014640310C460978082905D00B2903D00C2010BD022010BDFFF716FC002801D009202070002010BD70B503460088FFF7FBFD0400EF
:406A400008D0254640352878082805D00B2803D00C2070BD022070BD8420005910220830991CFBF7F6FF2046FFF7C6FA2878082804D02046FFF778FC002801D00A202870BD
:406A8000204600F0A9FB002070BD000010B50C46002121700088FFF7CDFD03000BD000F06AF9002807D00948F121807A0840C00603D4112010BD022010BD022020701A8AC9
:406AC0001889002103F086F8002010BDA8150020F8B50F46002100910088FFF7ABFD040012D000F048F900280ED0E079410641D4617E02264A07002A08DB8907402500296A
:406B00001ADA2843E07135E00220F8BD02F0B0F90021017021894180A1898180217E4170E189C1803E7005460178134802F02CFD284602F0F3FF1DE0204600F02DF901281F
:406B400006D068460BF000FD002803D00720F8BD2A20F8BDE07900992843E071204601F083FE607E0421304360760448C28A2046FEF768FD0020F8BD1D040000A8150020C6
:406B80003EB500220F236C460292238100910190628169460EC900200BF0E4FD3EBD0000F8B50F46054600F097FA040025D003202071254600264035EE76E6702046FFF78B
:406BC000A1F901F06BF80920FEF7EAFCA07800F07FFD0121204600F019FB2E706E70AE703A4600212046FFF7CFFC0649887B401C8873A078FFF754FEF8BD284601F012F909
:406C0000F8BD0000F015002010B5002801D0002000E0094800280DD0014640310A464978022901D100215170807DC107C90F002001F02EF910BD00001016002070B5034668
:406C40000D460088FFF7F6FC04000BD000F093F8002807D01248F121807A0840C00603D4112070BD022070BD20464030418A008A491C41430804C10C5888884201D2122064
:406C800070BD20822079072802D12046FFF7C4F8022028702089002102F0C4FF002070BDA8150020016A491C016204D1817E491C4906490E81767047C169491CC16104D1A9
:406CC000C17E491C4906490EC1767047F0B5074687B003A8009005A800260D460190002F01D0002400E01B4C002C05D06846FBF70FFF002803D00BE0022007B0F0BD68460D
:406D00000089C00704D1902200212046FBF7AAFE114829460068826820469047050016D1A77066762746267140373E70204600F019F8204601F0B4F9084820820848BE771A
:406D4000807AF121084000D001202075E682E8B2D3E7000010160020F80D0020B80B0000A8150020002101628176C161C17620300177417770470079002805D0012803D0F5
:406D8000022801D001207047002070474030807F002800D00120704740300078002807D0012805D0052803D00E2801D0012070470020704710B5807801F0F2F8002800D0BF
:406DC000012010BD10B500F0C7FB03498989090B01D0FFF7D5FE10BDA0102E4070B5054604464035A87F002825D1FF206075A0789021154A484380186030417F9023491C1C
:406E0000C9B24177A0785843104B8018DB896030994201D300214177A0789021484380186030467F0677A1783046FEF7A7FA002802D00120A87770BD0220A877A0783146E3
:406E400000F012FD70BD0000F0150020DC1600200020401C0006000EFBD0002070470000F0B515468207920F85B0000A02926A469080002D01D0002400E0564C002C28D0F8
:406E8000084600F007FC07466846808800280BD00298012843D0022841D003280BD03D20005D012879D08FE04B48381801882046FFF717F888E00020029002A80BF024FB24
:406EC000002807D03D20005D012802D12046FFF7E9FE7CE06846029E8388324600213846FCF742FD3C48381801882046FEF7F9FF284600F0B5FA01AA21463046FEF7E6FD7F
:406F0000002806D030460BF06FFB3D204C21085531E0F5773146204601F02AFA57E0002000902089039068460BF0DEFA002802D0002005B0F0BD6846009E8388321D0021FB
:406F40003846FCF711FD2448381801882046FEF7C8FF284600F084FA2046FFF70CFF002805D025464035287E002810D107E030460BF030FB2BE02046FFF764FA27E001AA62
:406F800021463046029BFEF7D9FD002806D030460BF020FB3D202873EDE712E00298FEF7AFFF0399317003990001090A0143717068468088B070000AF0703046FFF7DAFC73
:406FC00005E02046FFF76EFE284600F049FA0120AFE700001016002000102E4010B5074A917B002901D0491E91730021FFF76EFE002801D0002010BD012010BDF0150020C5
:40700000F8B5074606464037B87F00282DD0B078902100904843234945186035287F0099FEF7C1F901281ED0287F401CC4B21E48C089A04200D800240020B877FF276F777E
:407040002F77A87702460146009800F079FD717DFF2903D0304600F0E4FF777501F05AFB0025114F19E00320B877F8BD00200090224669463046FEF7F7FE0099002904D018
:40708000FF231A463046FEF7A6F9641CF889E4B2A04200D800246D1CEDB2F889A842E5D8F8BD0000F0150020DC16002010B502460021084B03E0002901D0002000E01846D7
:4070C0000479944204D0491C0906090EF3D0002010BD00001016002000B50120FFF7E6FF00BD10B5044601F0C3FE2189018080346168416061682831816002F0C9FC10BDE9
:40710000F7B50646087982B00C46092807D0A078F0770846FFF73AFE012806D010E030460BF076FA022005B0F0BDA1789020294A484380186030007FFEF720F9012810D076
:40714000A078FEF7D1FD01280BD037780121304601F08CFA25462035062F38D00B2F0FD107E06846027C21463046FEF7ADFE0D20D9E72046FDF72AFF012801D100202877A1
:407180002046FFF779FA054604AA21463046FEF70AFD01205F2108556946097C002001910090A07833463A46294600F007FB69460A7CA0780323294600F048FEA0782946A9
:4071C000FDF726FD30460BF023FA0020ABE70120D5E70000F015002010B502464032937F0021002B03D1927E002A00D00121064A927A002A00D000210279092A00D1012141
:40720000807800F065FE10BDC016002070B50C460546FDF7DBFE00280BD1012C06D92879092806D02846FFF7C5FD0446002C02D004E0012402E0A87DC007FAD1A87DC107FC
